:020000040800F2
:10000000C8040020A1010008B11F00085B1E000801
:10001000AD1F0008AD0200084125000800000000E7
:10002000000000000000000000000000B71F0008F2
:10003000F102000800000000B51F0008B91F000809
:10004000BB010008BB010008BB010008BB010008A0
:10005000BB010008BB010008BB010008BB01000890
:10006000BB010008BB010008BB010008BB01000880
:10007000BB010008BB010008BB010008BB01000870
:10008000BB010008BB010008BB010008C102000859
:10009000B1020008BB010008BB010008BB01000859
:1000A000BB010008BB010008BB010008BB01000840
:1000B000BB010008BB010008BB010008BB01000830
:1000C000BB010008BB010008BB010008BB01000820
:1000D000BB010008BB01000831250008BB01000876
:1000E000BB010008BB010008BB010008BB01000800
:1000F000BB010008BB010008BB010008BB010008F0
:10010000BB010008BB010008BB010008BB010008DF
:10011000BB010008BB010008BB010008BB010008CF
:10012000BB010008BB010008BB010008BB010008BF
:10013000BB010008BB010008BB010008E102000888
:10014000D1020008BB010008BB010008BB01000888
:10015000BB010008BB010008BB010008BB0100088F
:10016000BB010008BB010008BB010008BB0100087F
:10017000BB010008BB010008BB0100080000000033
:10018000BB010008BB010008DFF810D000F07CF8CC
:100190000048004715260008AFF30080C80400207F
:1001A0000648804706480047FEE7FEE7FEE7FEE711
:1001B000FEE7FEE7FEE7FEE7FEE7FEE77920000840
:1001C000890100082DE9F05F0546002092469B4614
:1001D00088460646814640241BE02846414647465D
:1001E000224600F041F853465A46C01A914110D3B6
:1001F00011461846224600F028F82D1A67EB010830
:100200004F4622460120002100F01FF817EB00099D
:100210004E41201EA4F10104DFDC484631462A4647
:100220004346BDE8F09FD2B201E000F8012B491E21
:10023000FBD270470022F6E710B513460A46044683
:100240001946FFF7F0FF204610BD202A04DB203AB4
:1002500000FA02F1002070479140C2F1200320FA19
:1002600003F3194390407047202A04DB203A21FA17
:1002700002F00021704721FA02F3D040C2F12002BF
:100280009140084319467047064C074D06E0E06868
:1002900040F0010394E8070098471034AC42F6D3CD
:1002A000FFF776FF082700082827000800BFFEE7B1
:1002B00010B5024800F052FA10BD000030000020D6
:1002C00010B5024800F04AFA10BD000030000020CE
:1002D00010B5024800F042FA10BD0000580000209E
:1002E00010B5024800F03AFA10BD00005800002096
:1002F000704772B600BFFEE710B5024692F8203094
:10030000012B01D0022B06D1106840690843146804
:100310006061002010BD506A40F4802050620120CE
:10032000F8E7F0B504460D461E4694F820702068A4
:100330008368A86800B900E000BF012F01D0022F38
:100340007DD103F0806030B903F0006018B903F08C
:10035000805000287ED0C3F30161012088403060C6
:10036000A86860B9B5F800C0E86840EA4C5C20684D
:1003700000F5C07000EB0110C0F800C00FE0D5E937
:1003800001C040EACC00D5F80CC040EA0C00D4F81B
:1003900000C00CF5C07C0CEB011CCCF80000D5F8BB
:1003A00010C0206800F5C07000EB0110C0F804C058
:1003B000287D01280ED1206800F5C07000EB0110E7
:1003C000406840F4807C206800F5C07000EB0110AC
:1003D000C0F804C0D079000692F806C040EA0C408C
:1003E00092F805C040EA0C2092F804C040EA0C00E4
:1003F000D4F800C00CF5C07C0CEB011CCCF80C0050
:10040000D078000692F802C040EA0C4092F801C091
:1004100040EA0C2092F800C040EA0C00D4F800C07A
:100420000CF5C07C0CEB011CCCF80800206800F532
:10043000C07000EB0110006840F0010C01E00FE01B
:1004400008E0206800F5C07000EB0110C0F800C0A3
:100450000020F0BD606A40F4001060620120F8E7FF
:10046000606A40F4802060620120F2E7F0B5044643
:100470000A46216894F82050012D01D0022D7ED12A
:10048000424901F50071086840F001000860086801
:1004900020F47C5008600868566A40EA062008602C
:1004A000107D00F01F06012000FA06F3C86998438A
:1004B000C861A1F50071D069C8B9D1F80C029843A0
:1004C000C1F80C02908880B2968940EA064601F590
:1004D0001070576940F83760108880B2168940EA7A
:1004E000064601F51070576900EBC7004660D069F9
:1004F000012819D1D1F80C021843C1F80C029088D8
:1005000080B2168840EA064601F51070576940F837
:100510003760908980B2168940EA064601F510706E
:10052000576900EBC7004660906928B9D1F804020A
:100530009843C1F8040204E0D1F804021843C1F85A
:100540000402106928B9D1F814029843C1F81402C2
:1005500004E0D1F814021843C1F81402106A01280B
:1005600004D1D1F81C021843C1F81C02D1F80002D2
:1005700020F00100C1F800020020F0BDFFE7606A32
:1005800040F4802060620120F7E700000064004032
:10059000704770B5044694F82050012D01D0022D0B
:1005A0007DD151B92068C06800F0030080B9606A4D
:1005B00040F400106062012070BD2068006900F006
:1005C000030028B9606A40F4001060620120F3E77C
:1005D000206800F5D87000EB0110006800F00400FE
:1005E0009060906840B9206800F5D87000EB011069
:1005F0000068400D106007E0206800F5D87000EB3F
:1006000001100068C0085060206800F5D87000EB49
:100610000110006800F00200D060206800F5D8707A
:1006200000EB0110406800F00F00082802D30820FA
:10063000106108E0206800F5D87000EB01104068F8
:1006400000F00F001061206800F5D87000EB011079
:10065000406800F47F40000A9061206800F5D8707F
:1006600000EB01104068000C5061206800F5D87064
:1006700000EB011080681870206800F5D87000EB5E
:100680000110806800F47F40000A5870206800F56F
:10069000D87000EB0110806800F47F0000E03CE0BF
:1006A000000C9870206800F5D87000EB011080688D
:1006B000000ED870206800F5D87000EB0110C068FB
:1006C0001871206800F5D87000EB0110C06800F4C4
:1006D0007F40000A5871206800F5D87000EB0110C7
:1006E000C06800F47F00000C9871206800F5D87095
:1006F00000EB0110C068000ED87131B92068C068E5
:1007000040F020002668F06005E02068006940F0B5
:1007100020002668306100204EE7606A40F48020A7
:100720006062012048E70146002091F82020012A5C
:1007300001D0022A11D10B689B6803F0806303B1DA
:10074000401C0B689B6803F0006303B1401C0B68FE
:100750009B6803F0805303B1401C70472DE9F05FA4
:1007600004460025206846692068D0F80490206877
:1007700087682068D0F80CA02068D0F810B02068F6
:10078000D0F8188006F00100002855D007F00100CD
:10079000C0B101202168886007F0020018B120462E
:1007A00000F0F5FA0EE007F0040010B145F4006522
:1007B00008E007F0080010B145F4805502E020463B
:1007C00000F0E4FA07F48070C8B14FF4807021683B
:1007D000886007F4007018B1204600F0DAFA0EE0E5
:1007E00007F4806010B145F4005508E007F400609C
:1007F00010B145F4804502E0204600F0C9FA07F444
:100800008030C8B14FF480302168886007F4003030
:1008100018B1204600F0BFFA0EE007F4802010B1B6
:1008200045F4004508E007F4002010B145F4803598
:1008300002E0204600F0AEFA06F0080038B10AF0F7
:10084000100020B145F4007510202168C86006F042
:10085000040040B10AF0080028B108202168C860EF
:10086000204600F01FFA06F0020038B12068C06888
:1008700000F0030010B1204600F016FA06F0400028
:1008800038B10BF0100020B145F4806510202168CC
:10089000086106F0200040B10BF0080028B10820E4
:1008A00021680861204600F03FFA06F0100038B1D8
:1008B0002068006900F0030010B1204600F035FA0E
:1008C00006F4003040B109F0100028B11020216872
:1008D0004860204600F02AFA06F4803040B109F062
:1008E000080028B1082021684860204600F054FA2A
:1008F00006F4004088B309F0040078B306F4807071
:1009000020B108F0010008B145F0010506F40070BF
:1009100020B108F0020008B145F0020506F480603D
:1009200020B108F0040008B145F0040506F40060A9
:10093000A0B108F0700088B108F07000402817D00E
:1009400006DC10280BD020280CD0302819D10CE060
:10095000502810D0602814D110E01DE019E045F0B7
:1009600008050FE045F010050CE045F0200509E012
:1009700045F0400506E045F0800503E045F480754C
:1009800000E000BF00BF2068806920F0700021688F
:1009900088610420216848602DB1606A2843606244
:1009A0002046FFF7F5FDBDE8F09F70B504460CB991
:1009B000012070BD94F8200010B9204600F0B0F876
:1009C0002068006840F001002168086000F05EFBCC
:1009D00005460DE000F05AFB401B0A2808D9606A62
:1009E00040F400306062052084F820000120E0E738
:1009F0002068406800F001000028EBD02068006803
:100A000020F002002168086000F040FB05460DE080
:100A100000F03CFB401B0A2808D9606A40F4003013
:100A20006062052084F820000120C2E72068406849
:100A300000F002000028EBD1207E012806D12068BA
:100A4000006840F080002168086005E020680068C8
:100A500020F0800021680860607E012806D12068AF
:100A6000006840F040002168086005E020680068E8
:100A700020F0400021680860A07E012806D120688F
:100A8000006840F020002168086005E020680068E8
:100A900020F0200021680860E07E012806D120684F
:100AA000006820F010002168086005E020680068F8
:100AB00040F0100021680860207F012806D12068DE
:100AC000006840F008002168086005E020680068C0
:100AD00020F0080021680860607F012806D12068A6
:100AE000006840F004002168086005E020680068A4
:100AF00020F0040021680860D4E90201084321695C
:100B00000843616908436168491E08432168C86158
:100B100000206062012084F82000002049E70000E6
:100B200010B586B00446142101A8FFF783FB57498E
:100B3000206888424AD156480068401C54490860E1
:100B40000846006801280FD100BF002000905148DE
:100B5000006840F000704F4908600846006800F0E7
:100B60000070009000BF00BF00BF00200090494807
:100B70001038006840F00100464910390860084606
:100B8000006800F00100009000BF00BF4FF4C050AB
:100B9000019002200290002003900320049009207D
:100BA000059001A93C4800F077F900221146132076
:100BB00000F0FAFA132000F0E3FA002211461420A4
:100BC00000F0F2FA142000F0DBFA5DE0334920680F
:100BD000884259D100BF002000902E48006840F0A4
:100BE00080602C4908600846006800F08060009032
:100BF00000BF00BF26480068401C25490860084621
:100C0000006801280FD100BF002000902148006833
:100C100040F000701F4908600846006800F000704E
:100C2000009000BF00BF00BF00200090194810389E
:100C3000006840F002001749103908600846006853
:100C400000F00200009000BF00BF4FF44050019040
:100C500002200290002003900320049009200590B8
:100C600001A90F4800F018F9002211463F2000F0BA
:100C70009BFA3F2000F084FA00221146402000F049
:100C800093FA402000F07CFA06B010BD00640040EA
:100C90000000002040380240000002400068004090
:100CA00000040240704700007CB505461B488542A1
:100CB00017D16B461A4A00212846FFF76AFC044602
:100CC0007CB917480068B0F5A07F02D1684601F0F2
:100CD00093FC12480068406940F002000F4909681F
:100CE00048611048854217D16B460D4A00212846BD
:100CF000FFF74FFC04467CB909480068B0F5A07FB7
:100D000002D1684601F078FC06480068406940F06E
:100D100002000449096848617CBD000030000020E1
:100D2000140000205800002070477047704770B5CD
:100D3000044694F82000012822D1022084F82000E3
:100D40002068006820F001002168086000F09EF92A
:100D500005460DE000F09AF9401B0A2808D9606AA0
:100D600040F400306062052084F82000012070BD4E
:100D70002068406800F001000028EBD16062F6E7CF
:100D8000606A40F4002060620120F0E7704770471D
:100D90007047704770477047704770B50446A56D3F
:100DA00000F074F9064694F83500022808D0802037
:100DB000606500BF002084F8340000BF012070BDD2
:100DC0002068006820F016002168086020684069EB
:100DD00020F0800021684861206C08B9A06C28B11F
:100DE0002068006820F0080021680860206800681A
:100DF00020F001002168086010E000F047F9801B36
:100E000005280BD920206065032084F8350000BF39
:100E1000002084F8340000BF0320D0E72068006879
:100E200000F001000028E8D194F85C103F208840D1
:100E3000A860012084F8350000BF002084F8340049
:100E400000BF00BFBBE7014691F83500022803D080
:100E50008020486501207047052081F8350008682A
:100E6000006820F001000A6810600020F3E700002D
:100E700070B5044600F00AF906462546681C10B114
:100E800004480078054400BF00F000F9801BA84228
:100E9000FAD370BD0C000020F8B502460B460025C1
:100EA000002400200021D6E0012606FA01F51E6884
:100EB00006EA0504AC4274D11E7906F00306012E41
:100EC00004D01E7906F00306022E13D190684F005D
:100ED0000326BE40B0434F00DE68BE403043906002
:100EE000506801268E40B0431E79C6F300168E402E
:100EF000304350601E7906F00306032E09D0D068F7
:100F00004F000326BE40B0434F009E68BE403043B2
:100F1000D0601E7906F00306022E13D1CF0802F12D
:100F2000200656F827004E07F70E0F26BE40B043A6
:100F30004F07FF0E1E69BE403043CF0802F1200666
:100F400046F8270010684F000326BE40B0431E79C4
:100F500006F003064F00BE40304310605E6806F4A2
:100F60004036002E76D000BF002600963C4E3668F4
:100F700046F480463A4F3E603E46366806F4804668
:100F8000009600BF00BF374E8F0856F827008E0727
:100F9000370F0F26BE40B043334EB24202D1002677
:100FA00024E057E0314EB24201D101261EE0304E1E
:100FB000B24201D1022619E02E4EB24201D10326DF
:100FC00014E02D4EB24201D104260FE02B4EB24266
:100FD00001D105260AE02A4EB24201D1062605E0DB
:100FE000284EB24201D1072600E008268F073F0FA6
:100FF000BE4030431B4E8F0846F82700224E306813
:10100000A0435E6806F4801606B120431E4E306091
:10101000361D3068A0435E6806F4001606B1204312
:10102000194E361D3060184E361F3068A0435E687A
:1010300006F4003606B12043134E361F3060361FCB
:101040003068A0435E6806F4803606B120430E4E39
:10105000083E3060491C1029FFF426AFF8BD00009F
:1010600044380240083801400000024000040240B9
:1010700000080240000C0240001002400014024030
:1010800000180240001C0240083C01400148006872
:1010900070470000040000200348006803490978F5
:1010A0000844014908607047040000200C0000203B
:1010B00010B50D48006840F400700B490860084600
:1010C000006840F4806008600846006840F4807062
:1010D0000860032000F0A6F80F2000F007F800F0E9
:1010E0002BF8002010BD0000003C024070B5044603
:1010F0000E4800784FF47A71B1FBF0F00C490968A2
:10110000B1FBF0F5284600F02FFC08B1012070BDBE
:10111000102C07D200222146501E00F045F8054849
:10112000046001E00120F2E70020F0E70C0000205D
:10113000100000200800002008B500BF002000902B
:101140000E48006840F480400C490860084600687A
:1011500000F48040009000BF00BF00BF002000905E
:10116000081F006840F08050091F086008460068AA
:1011700000F08050009000BF00BF08BD443802401E
:101180000146084600280DDB00BF00BF00F01F032A
:1011900001229A4043099B0003F1E023C3F8002198
:1011A00000BF00BF00BF70472DE9F05F80460D46CD
:1011B0001646002701F0C6F9074639462A46334647
:1011C00001F00700C0F1070ABAF1040F02D94FF08D
:1011D000040A01E0C0F1070AD14600F1040ABAF19D
:1011E000070F02D24FF0000A01E0A0F1030AD44633
:1011F0004FF0010A0AFA09FAAAF1010A0AEA020AF8
:101200000AFA0CFA4FF0010B0BFA0CFBABF1010BD5
:101210000BEA030B4AEA0B042146404601F09AF917
:10122000BDE8F09F00BF00F00702064B19684FF6BB
:10123000FF031940044B0B4343EA0221014B1960A1
:1012400000BF70470CED00E00000FA0570B50446E1
:101250000D460CB9012070BD5848006800F0070029
:10126000A84209D255490D700846006800F00700F1
:10127000A84201D00120EEE7207800F00200022809
:101280001DD1207800F00400042805D14C480068E6
:1012900040F4E0504A490860207800F0080008282F
:1012A00005D14748006840F460404549086044481B
:1012B000006820F0F000A1680843414908602078E8
:1012C00000F00100A8B36068012807D13C48083845
:1012D0000068C0F34040B8B90120BCE7606802284C
:1012E00002D06068032807D1354808380068C0F389
:1012F000406048B90120AEE7314808380068C0F3C3
:10130000400008B90120A6E72D48006820F003003E
:10131000616808432A490860FFF7B8FE064609E0FD
:10132000FFF7B4FE801B41F28831884202D90320C6
:1013300091E707E02248006800F00C006168B0EB1C
:10134000810FEDD11D48006800F00700A84209D9BF
:101350001A490D700846006800F00700A84201D045
:10136000012078E7207800F00400042807D1144811
:10137000006820F4E050E1680843114908602078D3
:1013800000F00800082808D10D48006820F46040EB
:10139000216940EAC1000A49086000F03FF80849A5
:1013A0000968C1F30311074A515CC8400649086047
:1013B00006480068FFF79AFE00204CE7003C024018
:1013C00008380240F0260008100000200800002025
:1013D00001480068704700001000002000B5FFF7CA
:1013E000F7FF04490968C1F38221034A515CC840F0
:1013F00000BD0000083802400027000800B5FFF7D4
:10140000E7FF04490968C1F34231034A515CC8400F
:1014100000BD000008380240002700082DE9F04711
:10142000002400250026A1462548006800F00C0095
:1014300020B1042805D008283AD105E0DFF88490CF
:1014400039E0DFF8849036E01D48001F006800F0A6
:101450003F041B48001F006800F4800078B11A4860
:101460001749091F0968C1F38811A0FB01700146E3
:10147000224600233846FEF7A5FE05460EE0114839
:101480000F49091F0968C1F38811A0FB01700146CB
:10149000224600233846FEF795FE05460848001F01
:1014A0000068C0F30140401C4600B5FBF6F902E0BD
:1014B000DFF8109000BF00BF4846BDE8F08700008D
:1014C000083802400024F40000127A00F8B50446FF
:1014D0000CB90120F8BD207800F00100002874D07C
:1014E000F948006800F00C0004280DD0F6480068A8
:1014F00000F00C00082813D1F348001F006800F426
:101500008000B0F5800F0BD1EF4808380068C0F3B9
:101510004040002859D06068002856D10120D9E702
:1015200000BF6068B0F5803F08D1E7480838006820
:1015300040F48030E449083908601EE06068B0F586
:10154000A02F0DD1E0480838006840F48020DE4923
:10155000083908600846006840F4803008600CE0F4
:10156000D9480838006820F48030D7490839086025
:101570000846006820F48020086000BF606890B1D1
:10158000FFF784FD054606E0FFF780FD401B642859
:1015900001D903209EE7CC4808380068C0F34040DA
:1015A0000028F1D011E0FFF771FD054606E0FFF7D6
:1015B0006DFD401B642801D903208BE7C248083821
:1015C0000068C0F340400028F1D1207800F002000C
:1015D00002285FD1BC48006800F00C0058B1BA483E
:1015E000006800F00C0008281CD1B748001F0068F4
:1015F00000F48000B0B9B44808380068C0F3400077
:1016000020B1E068012801D0012063E7AE48083826
:10161000006820F0F800216940EAC100AA490839B1
:10162000086037E0E06800B30120A8490860FFF7D0
:101630002DFD054606E0FFF729FD401B022801D9D4
:10164000032047E7A04808380068C0F3400000289E
:10165000F1D09D480838006820F0F800216940EA80
:10166000C10099490839086014E0002097490860D2
:10167000FFF70CFD054606E0FFF708FD401B0228BA
:1016800001D9032026E7904808380068C0F34000DD
:101690000028F1D1207800F0080008282CD16069DA
:1016A000A8B101208A490860FFF7F0FC054606E072
:1016B000FFF7ECFC401B022801D903200AE782480F
:1016C0006C300068C0F340000028F1D014E0002026
:1016D0007F490860FFF7DAFC054606E0FFF7D6FC15
:1016E000401B022801D90320F4E677486C300068DB
:1016F000C0F340000028F1D1207800F00400042855
:1017000070D1002770483830006800F0805090B9E0
:1017100000BF002000906C483830006840F08050D6
:101720006949383108600846006800F08050009030
:1017300000BF00BF01276748006800F48070B0B99F
:101740006448006840F4807062490860FFF79EFCBE
:10175000054606E0FFF79AFC401B022801D903204A
:10176000B8E65C48006800F480700028F2D000BF42
:10177000A068012808D154486830006840F0010092
:101780005149683108601DE0A06805280DD14E4818
:101790006830006840F004004B4968310860084632
:1017A000006840F0010008600CE0474868300068BD
:1017B00020F001004449683108600846006820F0C4
:1017C0000400086000BFA068A8B1FFF75FFC0546F1
:1017D00009E0FFF75BFC401B41F28831884202D9E7
:1017E000032077E626E0384868300068C0F3400000
:1017F0000028EED013E0FFF749FC054608E0FFF7AC
:1018000045FC401B41F28831884201D9032061E642
:101810002D4868300068C0F340000028EFD1012F48
:1018200007D129483830006820F0805026493831E7
:10183000086000BFA069002845D02348006800F078
:101840000C0008285DD0A069022845D100201F495E
:101850000866FFF71BFC054606E0FFF717FC401B78
:10186000022801D9032035E6174808380068C0F37C
:1018700040600028F1D1D4E907010843616A40EAD9
:1018800081110122A06AC2EB500041EA00412C20E4
:10189000005D41EA00600C49091F086001200B4906
:1018A0000866FFF7F3FB054606E0FFF7EFFB401B7A
:1018B000022801D903200DE6034808380068C0F368
:1018C00040600028F1D049E008380240000047425B
:1018D000800E474200700040002021490866FFF753
:1018E000D5FB054606E0FFF7D1FB401B022801D9D6
:1018F0000320EFE51B480068C0F340600028F2D1E8
:101900002CE0A069012800D1E4E51648001D066816
:10191000A069012820D006F48001E06981421BD132
:1019200006F03F01206A814216D147F6C070304070
:10193000616AB0EB811F0FD106F440310122A06A29
:10194000C2EB5000B1EB004F06D106F070612C20C5
:10195000005DB1EB006F01D00120BBE50020B9E5CF
:10196000000047420038024070B504462546681E14
:10197000B0F1807F01D301200FE0681E4FF0E0211D
:1019800048610F214FF0FF3000F0E4FD00204FF0E0
:10199000E021886107200861002070BD7047704712
:1019A0002DE9F84F0446206805682068C66820685D
:1019B00047694FF00009CA4605F00F09B9F1000F59
:1019C0000AD105F0200038B106F0200020B12046F1
:1019D00000F0A3FBBDE8F88FB9F1000F7CD007F051
:1019E000010018B906F49070002875D005F00100C8
:1019F00030B106F4807018B1606C40F00100606492
:101A000005F0040030B107F0010018B1606C40F03F
:101A10000200606405F0020030B107F0010018B167
:101A2000606C40F00400606405F0080048B106F006
:101A3000200010B907F0010018B1606C40F00800F8
:101A40006064606C002846D005F0200028B106F0E4
:101A5000200010B1204600F060FB20684069C0F310
:101A6000801A606C00F0080010B9BAF1000F2DD098
:101A7000204600F00CFB2068406900F04000402840
:101A800020D100BF00BF2168143151E8001F21F0B0
:101A900040002168143141E80002002AF3D100BF60
:101AA000E06B50B17748E16B0865E06BFFF7CBF96D
:101AB00088B1E06B016D88470DE02046FFF76FFFAE
:101AC00009E009E02046FFF76AFF04E02046FFF73F
:101AD00066FF002060647DE7206B012878D105F067
:101AE0001000002874D006F010000028FAD000BFC3
:101AF00000200090206800680090206840680090F6
:101B000000BF00BF2068406900F04000402860D15D
:101B1000E06B006840681FFA80F8B8F1000F56D0FB
:101B2000A08D404553DDA4F82E80E06BC069B0F570
:101B3000807F43D000BF00BF21680C3151E8001FF7
:101B400021F4807021680C3141E80002002AF3D1B1
:101B500000BF00BF00BF2168143151E8001F21F011
:101B600001002168143141E80002002AF3D100BFCE
:101B700000BF00BF2168143151E8001F21F0400070
:101B80002168143141E80002002AF3D100BF20206F
:101B900084F842000020206300BF00BF21680C31A0
:101BA00051E8001F21F0100021680C3141E80002CB
:101BB000002AF3D100BFE06BFFF7EFF8022060636B
:101BC000A08DE28D801A81B22046FFF7E7FE01E783
:101BD00042E0A08DE18D401A1FFA80F8E08DD0B36D
:101BE000B8F1000F37D000BF00BF21680C3151E8B9
:101BF000001F21F4907021680C3141E80002002A96
:101C0000F3D100BF00BF00BF2168143151E8001FAD
:101C100021F001002168143141E80002002AF3D1CB
:101C200000BF202084F842000020206300BF00BFD6
:101C300021680C3151E8001F21F0100021680C319F
:101C400041E80002002AF3D100BF02206063414650
:101C50002046FFF7A3FEBDE605F0800030B106F098
:101C6000800018B1204600F0EDFBB3E605F040001F
:101C700030B106F0400018B1204600F03EFAA9E667
:101C800000BFA7E67B20000810B504460CB9012070
:101C900010BDA06900B100E000BF94F8410028B970
:101CA000002084F84000204600F02AF8242084F820
:101CB00041002068C06820F400502168C8602046B8
:101CC00000F0AAFA2068006920F4904021680861B9
:101CD0002068406920F02A00216848612068C068B7
:101CE00040F400502168C86000206064202084F81F
:101CF000410084F842000020606300BFC8E7000094
:101D000010B586B00446142101A8FEF793FA1F49C6
:101D10002068884237D100BF002000901C4800682E
:101D200040F400301A4908600846006800F40030AA
:101D3000009000BF00BF00BF002000901448103882
:101D4000006840F008001249103908600846006831
:101D500000F00800009000BF00BF6020019002204A
:101D6000029000200390032004900720059001A911
:101D70000848FFF791F8002211462620FFF714FAD1
:101D80002620FFF7FDF906B010BD0000004400401A
:101D900040380240000C024070472DE9F84F0446DD
:101DA0000E46174699464FF0000A94F84100202845
:101DB00050D106B117B90120BDE8F88F002060644A
:101DC000212084F84100FFF761F98246A784E78467
:101DD000A068B0F5805F04D1206910B90025B04635
:101DE00002E035464FF000081EE0534600228021F5
:101DF0002046CDF8009000F055FB20B1202084F85B
:101E000041000320D8E745B9B8F80000C0F3080046
:101E10002168486008F1020803E0287821684860DA
:101E20006D1CE08C401EE084E08C0028DDD1534620
:101E3000002240212046CDF8009000F033FB20B175
:101E4000202084F841000320B6E7202084F84100D8
:101E50000020B1E70220AFE7704700BFFEE70000B7
:101E600010B50F480F490860062048604FF08041C8
:101E70000C4881604FF04071C1604FF40031016146
:101E8000090141610021017641768176C1760177B1
:101E90004177FEF78AFD08B1FEF72BFA10BD00006E
:101EA000006400403000002010B50F480F49086062
:101EB000062048604FF080410C4881604FF040712F
:101EC000C1604FF4003101610901416100210176D7
:101ED00041768176C17601774177FEF766FD08B1DC
:101EE000FEF707FA10BD000000680040580000200F
:101EF00008B500BF002000901D48006840F0800039
:101F00001B4908600846006800F08000009000BF90
:101F100000BF00BF002000900846006840F00200AB
:101F200008600846006800F00200009000BF00BF93
:101F300000BF002000900846006840F001000860E3
:101F40000846006800F00100009000BF00BF00BF1D
:101F5000002000900846006840F00800086008462D
:101F6000006800F00800009000BF00BF08BD00003E
:101F70003038024010B50B480B4908604FF4E1308F
:101F80004860002108488160C16001610C21416105
:101F900000218161C161FFF777FE08B1FEF7A9F961
:101FA00010BD0000004400408000002000BFFEE79C
:101FB00000BFFEE77047704710B5FFF76DF810BD22
:101FC00000B593B0302107A8FEF734F9142102A818
:101FD000FEF730F900BF002001902548006840F06E
:101FE0008050234908600846006800F08050019046
:101FF00000BF00BF00BF002001901E48006840F4F1
:1020000080401C4908600846006800F48040019048
:1020100000BF00BF0220079001200A9010200B9003
:1020200002200D9000210E9108210F91A8211091FE
:10203000022111910421129107A8FFF747FA08B174
:10204000FEF757F90F200290022003900020049021
:102050004FF4A05005904FF480500690052102A83F
:10206000FFF7F4F808B1FEF744F913B000BD000023
:102070004038024000700040704770B50546AC6BB8
:102080000020E085E0842046FFF789FC70BD00BF9A
:1020900000BF02680C3252E8002F22F490710268EF
:1020A0000C3242E80013002BF3D100BF00BF00BF89
:1020B0000268143252E8002F22F001010268143243
:1020C00042E80013002BF3D100BF016B01290ED1B0
:1020D00000BF00BF02680C3252E8002F22F010014E
:1020E00002680C3242E80013002BF3D100BF20211C
:1020F00080F8421000210163704710B50446206843
:10210000C06820F040002168C860202084F84100A9
:102110002046FFF7A1FE002010BDF8B5044694F854
:102120004200222875D1A068B0F5805F0CD12069EB
:1021300050B90025A66A20684068C0F308003080C6
:10214000A06A801CA06215E0A56A0026A068B0F510
:10215000805F03D0A06828B9206918B9206840685A
:10216000287004E02068406800F07F002870A06AB2
:10217000401CA062E08D401E80B2E085002846D160
:102180002068C06820F020002168C8602068C0680E
:1021900020F480702168C8602068406920F0010048
:1021A00021684861202084F8420000206063206B91
:1021B000012826D10020206300BF00BF21680C3118
:1021C00051E8001F21F0100021680C3141E80002A5
:1021D000002AF3D100BF2068006800F0100010282A
:1021E0000AD100BF0020009020680068009020689D
:1021F0004068009000BF00BFA18D2046FFF7CEFBD6
:1022000002E02046FFF7C8FD0020F8BD01E00020F5
:10221000FBE70220F9E700002DE9F84F04462068AB
:10222000006920F44050E168084321680861216991
:10223000A068084361690843E16908430090206889
:10224000C06849F20C618843009908432168C8605E
:102250002068406920F44070A16908432168486102
:1022600076492068884203D075492068884203D1A6
:10227000FFF7C4F8814602E0FFF7B0F88146E06955
:10228000B0F5004F6CD102206168A0FB01500346FD
:102290001920A9FB007001462A463846FDF792FF37
:1022A0006421B0FBF1F04FEA001A02206168A0FB44
:1022B00001510B461920A9FB00712A463846FDF74B
:1022C00081FF834602206168A0FB0150034619206C
:1022D000A9FB00712A463846FDF774FF6421B0FB64
:1022E000F1F000EBC00101EB0010ABEB80003221FC
:1022F00001EBC0006421B0FBF1F000F0F8000AEB44
:10230000400A02206168A0FB015003461920A9FB86
:10231000007001462A463846FDF754FF83460220E6
:102320006168A0FB015003461920A9FB00712A46F1
:102330003846FDF747FF6421B0FBF1F000EBC00128
:1023400001EB0010ABEB8000322101EBC0006421F7
:10235000B0FBF1F000F007005044216888606AE0AB
:1023600004206168A0FB015003461920A9FB0070FE
:1023700001462A463846FDF725FF8246042061685B
:10238000A0FB015003461920A9FB007001462A4614
:102390003846FDF717FF6421B0FBF1F000EBC001F8
:1023A00001EB0010AAEB8000322101EB0010642148
:1023B000B0FBF1F000F0F00A04206168A0FB0170AE
:1023C00003461920A9FB00513A462846FDF7FAFEBC
:1023D0006421B0FBF1F00AEB001A04206168A0FB55
:1023E00001510B461920A9FB00712A463846FDF71A
:1023F000E9FE834604206168A0FB015003461920D2
:10240000A9FB007001462A463846FDF7DBFE642131
:10241000B0FBF1F000EBC00101EB0010ABEB800072
:10242000322101EB00106421B0FBF1F000F00F004D
:10243000504421688860BDE8F88F0000001001401A
:1024400000140140014691F84100212828D18868F4
:10245000B0F5805F0BD1086948B90A6A1088C0F3EB
:1024600008000B685860086A801C086205E00B6A67
:10247000581C086218780B685860C88C401E80B2DF
:10248000C88458B90868C06820F080000B68D8601C
:102490000868C06840F040000B68D86000207047B2
:1024A0000220FCE72DE9F84304460D4617469846FE
:1024B000089E31E0701C70B3FEF7E8FDA0EB080049
:1024C000B04200D816B90320BDE8F8832068C06880
:1024D00000F00400F8B1802D1ED0402D1CD02068E3
:1024E0000068C0F3C000B0B100BF002000902068B9
:1024F0000068009020684068009000BF00BF204640
:10250000FFF7C5FD0820606400BF002084F840008C
:1025100000BF0120D8E7FFE7206800682840A842F4
:1025200001D1012000E00020B842C3D00020CBE759
:1025300010B50248FFF734FA10BD000080000020FB
:1025400000BFFEE702480068C0F3022070470000A9
:102550000CED00E010B5002804DB0A07130E054A55
:10256000135406E00A07140E034A00F00F031B1F62
:10257000D45410BD00E400E018ED00E002E008C80B
:10258000121F08C1002AFAD170477047002001E0ED
:1025900001C1121F002AFBD1704710B588B0044654
:1025A0004FF4A0700290082006900020049005903F
:1025B00001208DF8000000208DF801008DF8020048
:1025C0008DF803008DF804008DF805008DF80600E5
:1025D0008DF8070002236A4602A92046FDF7A1FEF6
:1025E00010B1012008B010BD00BF2046FEF79BF8D7
:1025F0000328FAD10020F5E710B504462078012819
:1026000005D164230122611C0148FFF7C6FB10BD00
:1026100080000020FEF74CFDFFF7D2FCFFF768FCBE
:10262000FFF71EFCFFF7A6FCFFF73EFC0F4800F08B
:1026300021F80E480068406940F002000B49096823
:1026400048610B4800F016F809480068406940F0FE
:10265000020007490968486106E00548FFF79DFF49
:102660004FF4FA70FEF704FCF7E70000300000209A
:102670005800002010B58AB004461B48844202D19D
:102680000020059004E01948844201D10E200590F5
:1026900000200690012007900020009001900290F9
:1026A000039004900E20099001200890694620466E
:1026B000FDF7DCFE08B1FDF71CFE2046FEF737FBF8
:1026C00008B1FDF716FE02212046FDF715FE08B100
:1026D000FDF70FFE01212046FDF70EFE08B1FDF7C4
:1026E00008FE0AB010BD0000300000205800002095
:1026F00000000000000000000102030406070809B2
:102700000000000001020304282700080000002048
:10271000140000007C2500083C270008140000205D
:10272000B40400008C250008000000000000000038
:0C27300010000000010000000024F40074
:040000050800018965
:00000001FF
