:020000040800F2
:10000000A861002061020008952B0008332A00082F
:10001000912B000895090008CD2D00080000000074
:10002000000000000000000000000000A101000826
:100030009110000800000000FD010008AD2B000831
:100040007B0200087B0200087B0200087B0200089C
:100050007B0200087B0200087B0200087B0200088C
:100060007B0200087B0200087B0200087B0200087C
:100070007B0200087B0200087B0200087B0200086C
:100080007B0200087B0200087B0200086110000868
:10009000511000087B0200087B0200087B02000868
:1000A0007B0200088D2C00087B0200087B02000800
:1000B0007B0200087B0200087B0200087B0200082C
:1000C0007B0200087B0200087B0200087B0200081C
:1000D0007B0200087B0200087B0200087B0200080C
:1000E0007B0200087B0200087B0200087B020008FC
:1000F0007B0200087B0200087B0200087B020008EC
:100100007B0200087B0200087B0200087B020008DB
:100110007B0200087B0200087B0200087B020008CB
:100120007B0200087B0200087B0200087B020008BB
:100130007B0200087B0200087B0200088110000897
:10014000711000087B0200087B0200087B02000897
:100150007B0200087B0200087B0200087B0200088B
:100160007B0200087B0200087B0200087B0200087B
:100170007B0200087B0200087B02000800000000F0
:100180007B0200087B020008DFF810D000F0C4FBFF
:100190000048004729460008AFF30080A86100200E
:1001A0002C4B19680868B0E8F04F80F30988BFF35A
:1001B0006F8F4FF0000080F311887047000000003F
:1001C00008480068006880F308884FF0000080F35A
:1001D000148862B661B6BFF34F8FBFF36F8F00DF35
:1001E00000BF00BF08ED00E0DFF80C00016841F43B
:1001F00070010160704700BF88ED00E0EFF30980F7
:10020000BFF36F8F134B1A681EF0100F08BF20ED5D
:10021000108A20E9F04F106009B44FF0500080F3CD
:100220001188BFF34F8FBFF36F8F06F04BFE4FF077
:10023000000080F3118809BC19680868B0E8F04F25
:100240001EF0100F08BFB0EC108A80F30988BFF3CE
:100250006F8F704724000020EFF305807047000087
:100260000648804706480047FEE7FEE7FEE7FEE750
:10027000FEE7FEE7FEE7FEE7FEE7FEE7792C000873
:10028000890100082DE9F05F0546002092469B4653
:1002900088460646814640241BE02846414647469C
:1002A000224600F0F1F953465A46C01A914110D344
:1002B00011461846224600F0D8F92D1A67EB0108BE
:1002C0004F4622460120002100F0CFF917EB00092C
:1002D0004E41201EA4F10104DFDC484631462A4687
:1002E0004346BDE8F09F40EA01039B0703D009E0C5
:1002F00008C9121F08C0042AFAD203E011F8013B12
:1003000000F8013B521EF9D27047D2B201E000F86A
:10031000012B491EFBD270470022F6E710B51346A9
:100320000A4604461946FFF7F0FF204610BD2DE9A6
:10033000FE4F804681EA0300C00F0C46009021F07A
:10034000004123F00045B8EB0200A94105D2404628
:10035000214690461C460B46024623F000401043BF
:1003600047D0270DC7F30A00C3F30A510290401A81
:10037000019040286BDAC3F3130040F4801B00980F
:10038000924620B10023D2EB030A63EB0B0B0198DA
:100390005946C0F14002504600F067F906460D4646
:1003A00050465946019A00F07FF910EB0800614170
:1003B000002487EA115284EAE7731A4340D0009A76
:1003C00062B3019A012A4FEA075215DC001B61EB68
:1003D00002014FF0004202EA0752CDE90042001C40
:1003E00041F5801132462B4600F0B6F903B0BDE866
:1003F000F08F40462146F9E7001B61EB0201001C2B
:1004000041F5801300185B412018A2F5001747EB57
:10041000030140EAD570B6196D4111E06D084FEA4D
:10042000360645EAC0754FEA0752001B61EB020130
:10043000001C41F5801149084FEA30000019514174
:1004400032462B4603B0BDE8F04F00F076B9009875
:10045000012240000023D0EB020263EBE07300981E
:1004600021464FEAE074B8EB000061EB0401E9E7D4
:1004700083F000435BE781F0004158E72DE9FE4F30
:1004800081EA030404F0004421F0004100944FF09D
:10049000000B23F0004350EA01045ED052EA03044B
:1004A0005BD0C3F30A54C1F30A552C44A4F2F334CD
:1004B0000194A0FB0254C1F3130141F48011C3F372
:1004C000130343F4801301FB024400FB034E840A30
:1004D000970A44EA815447EA8357A4FB07680295C8
:1004E0008D0A05FB07854FEA932C04FB0C54270566
:1004F000029D4FEA065847EA1637B5EB08056EEB42
:10050000070C870E920E47EA811742EA8312A7FB77
:100510000201B6EB0B0164EB00042B0D43EA0C3334
:100520005E1844EB1C50DA465146E7FB0201C5F366
:1005300013044FEA0B3343EA14534FEA0432019C8D
:1005400043EA0603A4F10C040294009CCDE900B434
:1005500000F002F903B0BDE8F08F00200146F9E792
:100560002DE9F04D81EA030404F0004B21F0004531
:1005700014464FF0000A23F0004150EA050220D053
:1005800054EA01021DD0C5F30A570246C5F313030E
:10059000C1F31300C1F30A5640F4801543F48013ED
:1005A000A7EB0608101BD64608F2FD3873EB0500D2
:1005B00002D308F1010801E092185B41B8F1000F85
:1005C00003DA00200146BDE8F08D00204FF48011D1
:1005D000064684460EE0171B73EB050705D3121B76
:1005E00063EB050306434CEA010C49084FEA30006F
:1005F00092185B4150EA0107EDD152EA030012D094
:1006000082EA040083EA0501084305D0101BAB41D0
:1006100006D20122002306E000224FF0004302E050
:100620006FF0010253101AEB06004CEB085110EB6F
:100630000A0041EB0B01BDE8F04D00F07EB8F0B4CC
:10064000CA17CB0F50405140C61841F100054FEA80
:10065000C372314628004FF0960303D0B623F0BC96
:1006600000F03DB830460021F9E7202A04DB203AAB
:1006700000FA02F1002070479140C2F1200320FAF5
:1006800003F3194390407047202A04DB203A21FAF3
:1006900002F00021704721FA02F3D040C2F120029B
:1006A0009140084319467047202A06DBCB17203AB1
:1006B00041FA02F043EAE07306E041FA02F3D04067
:1006C000C2F1200291400843194670470029A8BF93
:1006D0007047401C490008BF20F00100704710B46B
:1006E000B0FA80FC00FA0CF050EA010404BF10BC20
:1006F000704749B1CCF1200421FA04F411FA0CF14D
:1007000018BF012121430843A3EB0C01CB1D4FEA85
:1007100000614FEA102042BF002010BC704700EB80
:10072000C35010440029A4BF10BC7047401C4900AE
:1007300008BF20F0010010BC704710B5141E73F103
:10074000000408DA401C41F1000192185B411A4391
:1007500001D120F0010010BD2DE9F04D92469B46DD
:1007600011B1B1FA81F202E0B0FA80F22032904683
:10077000FFF77BFF04460F4640EA0A0041EA0B01FF
:1007800053465A46084313D0114653EA010019D084
:10079000C8F140025046FFF777FF05460E46504627
:1007A00059464246FFF761FF084305D0012004E0A7
:1007B00020463946BDE8F08D0020054346EAE07644
:1007C0002C4337430A986305E40AA0EB0800002293
:1007D000FD0A44EA47540A3002D500200146E9E701
:1007E000010510196941DDE9084500196941BDE8B5
:1007F000F04DA2E770B521F0004303430CD0C1F3E4
:100800000A550024D5EB040564EB0403D617AD1A92
:10081000B34102DB0020014670BD201841EB0251BC
:1008200070BD2DE9F04D00231A461B1A8A4103DBE7
:1008300000200146BDE8F08DC1F30A52C1F3130157
:1008400041F480154FF0000BD10702D100186D4123
:10085000521E0027044640F2FF11384601EB620A9F
:100860003E468046024600204FF48011FFF70CFF01
:10087000C2197141BB1846EB0100B4EB030C75EBD8
:10088000000C04D3E41A65EB000517460E46241944
:1008900008F101006D4180463428E3DDF91946EB8B
:1008A0000600091BA84103D24FF0FF32134601E0B6
:1008B000002213461BEB070046EB0A51BDE8F04D42
:1008C000FFF73BBF0EB5C10F80EAE0700844CA07CE
:1008D000002140F233438DE80E000A460B46FFF735
:1008E0003BFF03B000BD000030B5041E71F10004F1
:1008F00004DB4FF00044404264EB0101141E73F12D
:10090000000405DB1C464FF00043524263EB040336
:10091000994208BF904230BD064C074D06E0E068A2
:1009200040F0010394E8070098471034AC42F6D336
:10093000FFF72EFC707F0008907F00080EB540F294
:10094000334102910021CDE900110A460B46FFF721
:1009500003FF03B000BD70B5C1F30A5201F00045BA
:100960000024C1F3130140F2FF3341F480119A4295
:1009700001DA002070BD40F233439A42A2F23342C2
:1009800003DC5242FFF780FE00E090402C43F1D0A0
:10099000404270BD00BFFEE72DED108B96B04FF4C6
:1009A0007A7005F033F8182110A8FFF7B5FC18226B
:1009B000FE490AA8FFF797FC9FEDFD0BB0EE409AA9
:1009C000F0EE609A9DED0C2BB0EE420AF0EE620A5A
:1009D0009DED122BB0EE421AF0EE621A53EC102B82
:1009E00051EC110BFFF744FD41EC1E0B9FEDF21B88
:1009F000B0EE4E0AF0EE6E0A02F086FAB0EE40DA81
:100A0000F0EE60DA9DED0A2BB0EE420AF0EE620ADB
:100A10009DED102BB0EE421AF0EE621A53EC102B43
:100A200051EC110BFFF724FD41EC1E0B9FEDE21B77
:100A3000B0EE4E0AF0EE6E0A02F066FAB0EE40CA70
:100A4000F0EE60CA53EC1D2B51EC1C0BFFF76FFC52
:100A500041EC1B0BB0EE4B0AF0EE6B0A03F0E0F832
:100A6000B0EE408AF0EE608A9DED142BB0EE420AA3
:100A7000F0EE620A9DED0E2BB0EE421AF0EE621A15
:100A800053EC102B51EC110BFFF7F2FC41EC1C0B5B
:100A900053EC192BFFF7F2FC41EC1B0B53EC182B1A
:100AA000FFF75EFD41EC1A0B9FEDC52ADFEDC41A7E
:100AB0009FEDC41ADFEDC30A9FEDC30AC34805F0DA
:100AC000CDF89FEDBF2ADFEDBE1A9FEDBE1AF7EEFF
:100AD000000AB2EE040ABD48283805F0BFF89FEDC1
:100AE000B82ADFEDB71A9FEDB71ADFEDB60A9FED12
:100AF000B60AB648D83005F0B1F89FEDB12ADFED5F
:100B0000B01A9FEDB01AF7EE000AB2EE040AAF4831
:100B1000B03005F0A3F89FEDAA2ADFEDA91A9FEDEA
:100B2000A91ADFEDA80A9FEDA80AA94805F096F8D2
:100B30009FEDA32ADFEDA21A9FEDA21AF7EE000A9D
:100B4000B2EE040AA248283805F088F87AE20024B8
:100B500075E29DED141BB0EE410AF0EE610A02F061
:100B6000FBFFB0EE40CAF0EE60CA9DED122BB0EE76
:100B7000420AF0EE620A9DED0C2BB0EE421AF0EE46
:100B8000621A53EC102B51EC110BFFF771FC41EC86
:100B90001E0B53EC192BFFF771FC41EC1D0B53ECB2
:100BA0001C2BFFF76BFC41EC1B0B53EC182BFFF7D6
:100BB000D7FCCDE904019DED141BB0EE410AF0EE27
:100BC000610A02F03DF9B0EE40DAF0EE60DA9DED38
:100BD000102BB0EE420AF0EE620A9DED0A2BB0EE49
:100BE000421AF0EE621A53EC102B51EC110BFFF786
:100BF0003FFC41EC1F0B53EC192BFFF73FFC41EC82
:100C00001E0B53EC1D2BFFF739FC41EC1C0B53EC76
:100C1000182BFFF7A5FC41EC1B0B51EC1A0B81F0D4
:100C2000004141EC1E0B9FED6B0B53EC102BFFF7BB
:100C300025FC41EC1D0B9FED690B53EC102BFFF7CE
:100C40001DFC41EC1C0B9FED670B53EC102BFFF7C9
:100C500087FC53EC1B2BCDE900019DED000B51EC03
:100C6000100BFFF705FCCDE902019DED040B53ECE1
:100C7000102B9DED020B51EC100BFFF758FB9FED75
:100C80005B0B53EC102BCDE906019DED060B51ECEF
:100C9000100BFFF7F3FBCDE908019DED141BB0EE3F
:100CA000410AF0EE610A53EC102B9FED521B51EC00
:100CB000110BFFF7DDFB41EC1C0BB0EE4C0AF0EE24
:100CC0006C0A02F049FFB0EE40EAF0EE60EA9DEDFA
:100CD000122BB0EE420AF0EE620A9DED0C2BB0EE44
:100CE000421AF0EE621A53EC102B51EC110BFFF785
:100CF000BFFB41EC1C0B53EC192BFFF7BFFB41EC86
:100D00001B0B53EC1E2BFFF7B9FB41EC1D0B53ECF7
:100D1000182BFFF725FCCDE904019DED141BB0EE67
:100D2000410AF0EE610A53EC102B9FED321B51EC9F
:100D3000110BFFF79DFB41EC1F0BB0EE4F0AF0EEDD
:100D40006F0A02F07DF8B0EE40DAF0EE60DA9DED69
:100D5000102BB0EE420AF0EE620A9DED0A2BB0EEC7
:100D6000421AF0EE621A53EC102B51EC110BFFF704
:100D70007FFB41EC1F0B53EC192BFFF77FFB41EC82
:100D80001E0B53EC1D2BFFF779FB53EC182BCDE911
:100D900000019DED000B51EC100BFFF7E1FB41EC66
:100DA0001B0B51EC1A0B81F0004127E0787D000805
:100DB0000000000000408F400000000000000040E4
:100DC00000409C4500000000CDCC4C3DCC4A0020AA
:100DD0007C4C0020C503CAA65C210940E17A14AE10
:100DE00047E96C400000000000806640DBF97E6A45
:100DF000BC7473400000000000004E4041EC1F0B2B
:100E00001FED0C0B53EC102BFFF738FB41EC1E0BC6
:100E10001FED0E0B53EC102BFFF730FB41EC1D0BBD
:100E20001FED100B53EC102BFFF79AFB41EC1C0B42
:100E300053EC1B2BFFF77BFACDE902019DED040B70
:100E400053EC102B9DED020B51EC100BFFF710FB38
:100E50001FED1A0B53EC102BCDE906019DED060B8F
:100E600051EC100BFFF70AFBCDE908019DED141BB7
:100E7000B0EE410AF0EE610A53EC102B1FED231B7C
:100E800051EC110BFFF753FA41EC1F0BB0EE4F0A78
:100E9000F0EE6F0A02F060FEB0EE40DAF0EE60DADB
:100EA0009DED122BB0EE420AF0EE620A9DED0C2B86
:100EB000B0EE421AF0EE621A53EC102B51EC110B0B
:100EC000FFF7D6FA41EC1F0B53EC192BFFF7D6FABC
:100ED00041EC1E0B53EC1D2BFFF7D0FA41EC1B0B22
:100EE00053EC182BFFF73CFB41EC1C0B9DED141B46
:100EF000B0EE410AF0EE610A53EC102B1FED431BDC
:100F000051EC110BFFF713FA41EC1F0BB0EE4F0A37
:100F1000F0EE6F0A01F094FFB0EE40DAF0EE60DA26
:100F20009DED102BB0EE420AF0EE620A9DED0A2B09
:100F3000B0EE421AF0EE621A53EC102B51EC110B8A
:100F4000FFF796FA41EC1F0B53EC192BFFF796FABB
:100F500041EC1E0B53EC1D2BFFF790FA41EC1B0BE1
:100F600053EC182BFFF7FCFACDE9020151EC1A0BF8
:100F700081F0004141EC1E0B1FED6A0B53EC102B6E
:100F8000FFF77CFA41EC1D0B1FED6C0B53EC102BA3
:100F9000FFF774FA41EC1B0B1FED6E0B53EC102B9B
:100FA000FFF7DEFACDE900019DED020B53EC102BAB
:100FB0009DED000B51EC100BFFF7B9F953EC1C2B16
:100FC000CDE904019DED040B51EC100BFFF7AFF9D7
:100FD0001FED7A0B53EC102BCDE906019DED060BAE
:100FE00051EC100BFFF74AFACDE908011649086ADF
:100FF000496A41F2883145181348D830016A406A7D
:1010000041F288300E181148016A406A41F2883076
:101010000F182B4601221146104603F031FB3346D0
:1010200001220221104603F02BFB3B460122032143
:10103000104603F025FB022004F0E8FC641C192C88
:101040007FF787AD83E50000204A0020D04B0020C9
:1010500010B5024800F04BFA10BD0000B4000020AB
:1010600010B5024800F043FA10BD0000B4000020A3
:1010700010B5024800F03BFA10BD0000DC00002073
:1010800010B5024800F033FA10BD0000DC0000206B
:10109000704772B600BFFEE710B5024692F82030E6
:1010A000012B01D0022B06D1106840690843146857
:1010B0006061002010BD506A40F480205062012021
:1010C000F8E7F0B504460D461E4694F820702068F7
:1010D0008368A86800B900E000BF012F01D0022F8B
:1010E0007CD103F0806030B903F0006018B903F0E0
:1010F0008050002873D0C3F30161022905D9606ACA
:1011000040F4000060620120F0BD012088403060A2
:10111000A86860B9B5F800C0E86840EA4C5C20688F
:1011200000F5C07000EB0110C0F800C00FE0D5E979
:1011300001C040EACC00D5F80CC040EA0C00D4F85D
:1011400000C00CF5C07C0CEB011CCCF80000D5F8FD
:1011500010C0206800F5C07000EB0110C0F804C09A
:10116000287D01280ED1206800F5C07000EB011029
:10117000406840F4807C206800F5C07000EB0110EE
:10118000C0F804C0D079000692F806C040EA0C40CE
:1011900092F805C040EA0C2C10794CEA000C20684B
:1011A00000F5C07000EB0110C0F80CC0D07800064C
:1011B00092F802C040EA0C4092F801C040EA0C20CC
:1011C00092F800C040EA0C00D4F800C00CF5C07CD6
:1011D0000CEB011CCCF80800206801E016E00FE0E1
:1011E00000F5C07000EB0110006840F0010C2068B1
:1011F00000F5C07000EB0110C0F800C0002083E7CC
:10120000606A40F40010606201207DE7606A40F48B
:1012100080206062012077E7F0B504460A46216825
:1012200094F82050012D01D0022D7ED1424901F5C4
:101230000071086840F001000860086820F47C50E4
:1012400008600868566A40EA06200860107D00F0D1
:101250001F06012000FA06F3C8699843C861A1F58A
:101260000071D069C8B9D1F80C029843C1F80C02DA
:10127000908880B2968940EA064601F51070576959
:1012800040F83760108880B2168940EA064601F5BA
:101290001070576900EBC7004660D069012819D16A
:1012A000D1F80C021843C1F80C02908880B216885D
:1012B00040EA064601F51070576940F8376090899A
:1012C00080B2168940EA064601F51070576900EBB6
:1012D000C7004660906928B9D1F804029843C1F864
:1012E000040204E0D1F804021843C1F804021069B2
:1012F00028B9D1F814029843C1F8140204E0D1F8D7
:1013000014021843C1F81402106A012804D1D1F85C
:101310001C021843C1F81C02D1F8000220F00100A1
:10132000C1F800020020F0BDFFE7606A40F48020B1
:1013300060620120F7E7000000640040704770B56C
:10134000044694F82050012D01D0022D7DD151B9D1
:101350002068C06800F0030080B9606A40F40010A3
:101360006062012070BD2068006900F0030028B9A8
:10137000606A40F4001060620120F3E7206800F525
:10138000D87000EB0110006800F0040090609068D5
:1013900040B9206800F5D87000EB01100068400DDE
:1013A000106007E0206800F5D87000EB01100068BD
:1013B000C0085060206800F5D87000EB011000688C
:1013C00000F00200D060206800F5D87000EB01103A
:1013D000406800F00F001061206800F5D87000EB45
:1013E0000110406800F47F40000A9061206800F519
:1013F000D87000EB01104068000C5061206800F5C7
:10140000D87000EB011080681870206800F5D87063
:1014100000EB0110806800F47F40000A58702068DB
:1014200000F5D87000EB0110806800F47F00000C1C
:101430009870206800F5D87000EB01108068000EED
:10144000D870206800F5D87000E02FE000EB0110A4
:10145000C0681871206800F5D87000EB0110C068F2
:1014600000F47F40000A5871206800F5D87000EB46
:101470000110C06800F47F00000C9871206800F52E
:10148000D87000EB0110C068000ED87131B9206827
:10149000C06840F020002668F06005E02068006920
:1014A00040F020002668306100205BE7606A40F46D
:1014B00080206062012055E70146002091F820203D
:1014C000012A01D0022A11D10B689B6803F08063C6
:1014D00003B1401C0B689B6803F0006303B1401C20
:1014E0000B689B6803F0805303B1401C70472DE9E3
:1014F000F05F04460025206846692068D0F8049013
:10150000206887682068D0F80CA02068D0F810B058
:101510002068D0F8188006F00100002855D007F0A8
:101520000100C0B101202168886007F0020018B1F5
:10153000204600F06CFB0EE007F0040010B145F40B
:10154000006508E007F0080010B145F4805502E09E
:10155000204600F05BFB07F48070C8B14FF4807048
:101560002168886007F4007018B1204600F051FB34
:101570000EE007F4806010B145F4005508E007F470
:10158000006010B145F4804502E0204600F040FBC9
:1015900007F48030C8B14FF480302168886007F4C8
:1015A000003018B1204600F036FB0EE007F4802032
:1015B00010B145F4004508E007F4002010B145F4EF
:1015C000803502E0204600F025FB06F0080038B127
:1015D0000AF0100020B145F4007510202168C860A1
:1015E00006F0040040B10AF0080028B10820216884
:1015F000C860204600F01EFA06F0020038B12068EC
:10160000C06800F0030010B1204600F015FA06F0A3
:10161000400038B10BF0100020B145F48065102077
:101620002168086106F0200040B10BF0080028B1E5
:10163000082021680861204600F0B6FA06F0100084
:1016400038B12068006900F0030010B1204600F0B6
:10165000ACFA06F4003040B109F0100028B11020B7
:1016600021684860204600F0A1FA06F4803040B1BD
:1016700009F0080028B1082021684860204600F0E1
:10168000CBFA06F4004088B309F0040078B306F4FE
:10169000807020B108F0010008B145F0010506F4A2
:1016A000007020B108F0020008B145F0020506F410
:1016B000806020B108F0040008B145F0040506F48C
:1016C0000060A0B108F0700088B108F070004028F8
:1016D00017D006DC10280BD020280CD0302819D1C8
:1016E0000CE0502810D0602814D110E01DE019E063
:1016F00045F008050FE045F010050CE045F0200529
:1017000009E045F0400506E045F0800503E045F4BA
:10171000807500E000BF00BF2068806920F0700085
:10172000216888610420216848602DB1606A2843DF
:1017300060622046FFF702FEBDE8F09F70B50446E8
:101740000CB9012070BD94F8200010B9204600F0BB
:10175000AFF82068006840F001002168086000F0E0
:1017600057FB05460DE000F053FB401B0A2808D943
:10177000606A40F400306062052084F82000012097
:10178000E0E72068406800F001000028EBD0206806
:10179000006820F002002168086000F039FB05466F
:1017A0000DE000F035FB401B0A2808D9606A40F4C0
:1017B00000306062052084F820000120C2E7206824
:1017C000406800F002000028EBD1207E012806D1FD
:1017D0002068006840F080002168086005E020680B
:1017E000006820F0800021680860607E012806D132
:1017F0002068006840F040002168086005E020682B
:10180000006820F0400021680860A07E012806D111
:101810002068006840F020002168086005E020682A
:10182000006820F0200021680860E07E012806D1D1
:101830002068006820F010002168086005E020683A
:10184000006840F0100021680860207F012806D160
:101850002068006840F008002168086005E0206802
:10186000006820F0080021680860607F012806D128
:101870002068006840F004002168086005E02068E6
:10188000006820F0040021680860D4E902010843E0
:1018900021690843616908436168491E084321685A
:1018A000C86100206062012084F82000002049E720
:1018B00010B586B00446142101A8FEF72DFD574946
:1018C000206888424AD156480068401C5449086044
:1018D0000846006801280FD100BF00200090514841
:1018E000006840F000704F4908600846006800F04A
:1018F0000070009000BF00BF00BF0020009049486A
:101900001038006840F00100464910390860084668
:10191000006800F00100009000BF00BF4FF4C0500D
:1019200001900220029000200390032004900920DF
:10193000059001A93C4800F071F90022052113200F
:1019400000F020FB132000F00DFB002205211420E5
:1019500000F018FB142000F005FB5DE0334920681F
:10196000884259D100BF002000902E48006840F006
:1019700080602C4908600846006800F08060009094
:1019800000BF00BF26480068401C25490860084683
:10199000006801280FD100BF002000902148006896
:1019A00040F000701F4908600846006800F00070B1
:1019B000009000BF00BF00BF002000901948103801
:1019C000006840F0020017491039086008460068B6
:1019D00000F00200009000BF00BF4FF440500190A3
:1019E000022002900020039003200490092005901B
:1019F00001A90F4800F012F9002205213F2000F054
:101A0000C1FA3F2000F0AEFA00220521402000F08C
:101A1000B9FA402000F0A6FA06B010BD00640040FC
:101A200010000020403802400000024000680040E2
:101A300000040240704700007CB5054653488542CB
:101A400050D16B46524A00212846FFF778FC0446E5
:101A5000002C46D14E480068A0F201200B2837D256
:101A6000DFE800F0060708090A0B0C0D0E0F100046
:101A700000BF00BF00BF00BF00BF00BF00BF00BF6E
:101A800000BF00BF42480078401E42490870084627
:101A9000007800EBC00000EB40003F4901EBC000C4
:101AA000406D401C3B49097801EBC10101EB41014C
:101AB000394A02EBC10148653649097801EBC10199
:101AC00001EB410102EBC100694602F04FFD00BF8E
:101AD00000BF2E480068406940F002002B490968A9
:101AE000486152E02D4885424FD16B46284A00217B
:101AF0002846FFF724FC0446002C46D12448006801
:101B0000A0F201200B2837D2DFE800F00607080911
:101B10000A0B0C0D0E0F100000BF00BF00BF00BF6E
:101B200000BF00BF00BF00BF00BF00BF1848007863
:101B3000401E1B4908700846007800EBC00000EB0F
:101B40004000184901EBC000406D401C1449097861
:101B500001EBC10101EB4101124A02EBC1014865F1
:101B60000F49097801EBC10101EB410102EBC10012
:101B7000694602F0FBFC00BF00BF044800684069F2
:101B800040F002000149096848617CBDB4000020B2
:101B9000885D0020AC000020204A0020DC000020EE
:101BA000AD0000206853002070477047704770B543
:101BB000044694F82000012822D1022084F8200055
:101BC0002068006820F001002168086000F020F91A
:101BD00005460DE000F01CF9401B0A2808D9606A90
:101BE00040F400306062052084F82000012070BDC0
:101BF0002068406800F001000028EBD16062F6E741
:101C0000606A40F4002060620120F0E7704770478E
:101C1000704770477047704770470000F8B502463C
:101C20000B460025002400200021D6E0012606FAFC
:101C300001F51E6806EA0504AC4274D11E7906F06F
:101C40000306012E04D01E7906F00306022E13D1DE
:101C500090684F000326BE40B0434F00DE68BE4090
:101C600030439060506801268E40B0431E79C6F321
:101C700000168E40304350601E7906F00306032E96
:101C800009D0D0684F000326BE40B0434F009E6885
:101C9000BE403043D0601E7906F00306022E13D1F9
:101CA000CF0802F1200656F827004E07F70E0F2640
:101CB000BE40B0434F07FF0E1E69BE403043CF0801
:101CC00002F1200646F8270010684F000326BE40A8
:101CD000B0431E7906F003064F00BE40304310604B
:101CE0005E6806F44036002E76D000BF00260096CF
:101CF0003C4E366846F480463A4F3E603E46366873
:101D000006F48046009600BF00BF374E8F0856F895
:101D100027008E07370F0F26BE40B043334EB24226
:101D200002D1002624E057E0314EB24201D1012613
:101D30001EE0304EB24201D1022619E02E4EB242D0
:101D400001D1032614E02D4EB24201D104260FE04A
:101D50002B4EB24201D105260AE02A4EB24201D1F1
:101D6000062605E0284EB24201D1072600E00826EB
:101D70008F073F0FBE4030431B4E8F0846F82700A9
:101D8000224E3068A0435E6806F4801606B12043F8
:101D90001E4E3060361D3068A0435E6806F40016A3
:101DA00006B12043194E361D3060184E361F30687C
:101DB000A0435E6806F4003606B12043134E361F7A
:101DC0003060361F3068A0435E6806F4803606B186
:101DD00020430E4E083E3060491C1029FFF426AF08
:101DE000F8BD0000443802400838014000000240BD
:101DF0000004024000080240000C024000100240B3
:101E00000014024000180240001C0240083C01403F
:101E10000148006870470000140000200348006873
:101E200003490978084401490860704714000020FC
:101E30001C00002010B50D48006840F400700B49EC
:101E400008600846006840F4806008600846006842
:101E500040F480700860032000F0D2F80F2000F0FA
:101E600007F800F055F8002010BD0000003C0240CB
:101E7000F0B587B004460026002700BF0020009080
:101E80001E48006840F001001C49086008460068D0
:101E900000F00100009000BF00BF01A902A800F0FF
:101EA00085F900F0ABF946001548B6FBF0F0471E87
:101EB00014481549086040F2E7311348C160476093
:101EC000002101618160816100F050FC054695B9F7
:101ED0000D4800F07FFC05466DB9192000F042F86E
:101EE000102C07D200222146192000F04BF8074899
:101EF000046000E00125284607B0F0BD44380240E8
:101F000040420F00000001400401002018000020A2
:101F100008B500BF002000901148006840F48040E0
:101F20000F4908600846006800F48040009000BF38
:101F300000BF00BF00200090081F006840F08050E4
:101F4000091F08600846006800F08050009000BF3C
:101F500000BF00220F21901E00F014F808BD000001
:101F60004438024001460846002809DB00F01F0300
:101F700001229A4043099B0003F1E023C3F80021AA
:101F800000BF70472DE9F05F80460D4616460027DA
:101F900000F036FF074639462A46334601F007006F
:101FA000C0F1070ABAF1040F02D94FF0040A01E0A8
:101FB000C0F1070AD14600F1040ABAF1070F02D2B4
:101FC0004FF0000A01E0A0F1030AD4464FF0010AE5
:101FD0000AFA09FAAAF1010A0AEA020A0AFA0CFA4A
:101FE0004FF0010B0BFA0CFBABF1010B0BEA030BEF
:101FF0004AEA0B042146404600F00AFFBDE8F09F84
:1020000000BF00F00702064B19684FF6FF031940A6
:10201000044B0B4343EA0221014B196000BF704798
:102020000CED00E00000FA0570B504460D460CB951
:10203000012070BD5848006800F00700A84209D28E
:1020400055490D700846006800F00700A84201D00D
:102050000120EEE7207800F0020002281DD1207850
:1020600000F00400042805D14C48006840F4E0501A
:102070004A490860207800F00800082805D1474840
:10208000006840F46040454908604448006820F01A
:10209000F000A168084341490860207800F0010081
:1020A000A8B36068012807D13C4808380068C0F32D
:1020B0004040B8B90120BCE76068022802D06068DF
:1020C000032807D1354808380068C0F3406048B994
:1020D0000120AEE7314808380068C0F3400008B975
:1020E0000120A6E72D48006820F00300616808433E
:1020F0002A490860FFF78CFE064609E0FFF788FED4
:10210000801B41F28831884202D9032091E707E021
:102110002248006800F00C006168B0EB810FEDD13F
:102120001D48006800F00700A84209D91A490D703F
:102130000846006800F00700A84201D0012078E7B7
:10214000207800F00400042807D11448006820F427
:10215000E050E168084311490860207800F0080069
:10216000082808D10D48006820F46040216940EA41
:10217000C1000A49086000F051F808490968C1F334
:102180000311074A515CC8400649086006480068C8
:10219000FFF76EFE00204CE7003C0240083802408A
:1021A0005C7D000820000020180000200F22026043
:1021B0000D4A126802F0030242600B4A126802F0F4
:1021C000F0028260084A126802F4E052C260064AD5
:1021D000126802F46042D2080261044A126802F0F6
:1021E00007020A607047000008380240003C0240C5
:1021F00001480068704700002000002000B5FFF78C
:10220000F7FF04490968C1F34231034A515CC840F1
:1022100000BD0000083802406C7D00082DE9F04741
:10222000002400250026A1462548006800F00C0087
:1022300020B1042805D008283AD105E0DFF88490C1
:1022400039E0DFF8849036E01D48001F006800F098
:102250003F041B48001F006800F4800078B11A4852
:102260001749091F0968C1F38811A0FB01700146D5
:10227000224600233846FEF705F805460EE01148D1
:102280000F49091F0968C1F38811A0FB01700146BD
:10229000224600233846FDF7F5FF05460848001F93
:1022A0000068C0F30140401C4600B5FBF6F902E0AF
:1022B000DFF8109000BF00BF4846BDE8F08700007F
:1022C000083802400024F40000127A00F8B50446F1
:1022D0000CB90120F8BD207800F00100002874D06E
:1022E000F948006800F00C0004280DD0F64800689A
:1022F00000F00C00082813D1F348001F006800F418
:102300008000B0F5800F0BD1EF4808380068C0F3AB
:102310004040002859D06068002856D10120D9E7F4
:1023200000BF6068B0F5803F08D1E7480838006812
:1023300040F48030E449083908601EE06068B0F578
:10234000A02F0DD1E0480838006840F48020DE4915
:10235000083908600846006840F4803008600CE0E6
:10236000D9480838006820F48030D7490839086017
:102370000846006820F48020086000BF606890B1C3
:10238000FFF746FD054606E0FFF742FD401B6428C7
:1023900001D903209EE7CC4808380068C0F34040CC
:1023A0000028F1D011E0FFF733FD054606E0FFF706
:1023B0002FFD401B642801D903208BE7C248083851
:1023C0000068C0F340400028F1D1207800F00200FE
:1023D00002285FD1BC48006800F00C0058B1BA4830
:1023E000006800F00C0008281CD1B748001F0068E6
:1023F00000F48000B0B9B44808380068C0F3400069
:1024000020B1E068012801D0012063E7AE48083818
:10241000006820F0F800216940EAC100AA490839A3
:10242000086037E0E06800B30120A8490860FFF7C2
:10243000EFFC054606E0FFF7EBFC401B022801D944
:10244000032047E7A04808380068C0F34000002890
:10245000F1D09D480838006820F0F800216940EA72
:10246000C10099490839086014E0002097490860C4
:10247000FFF7CEFC054606E0FFF7CAFC401B02282A
:1024800001D9032026E7904808380068C0F34000CF
:102490000028F1D1207800F0080008282CD16069CC
:1024A000A8B101208A490860FFF7B2FC054606E0A2
:1024B000FFF7AEFC401B022801D903200AE782483F
:1024C0006C300068C0F340000028F1D014E0002018
:1024D0007F490860FFF79CFC054606E0FFF798FC83
:1024E000401B022801D90320F4E677486C300068CD
:1024F000C0F340000028F1D1207800F00400042847
:1025000070D1002770483830006800F0805090B9D2
:1025100000BF002000906C483830006840F08050C8
:102520006949383108600846006800F08050009022
:1025300000BF00BF01276748006800F48070B0B991
:102540006448006840F4807062490860FFF760FCEE
:10255000054606E0FFF75CFC401B022801D903207A
:10256000B8E65C48006800F480700028F2D000BF34
:10257000A068012808D154486830006840F0010084
:102580005149683108601DE0A06805280DD14E480A
:102590006830006840F004004B4968310860084624
:1025A000006840F0010008600CE0474868300068AF
:1025B00020F001004449683108600846006820F0B6
:1025C0000400086000BFA068A8B1FFF721FC054621
:1025D00009E0FFF71DFC401B41F28831884202D917
:1025E000032077E626E0384868300068C0F34000F2
:1025F0000028EED013E0FFF70BFC054608E0FFF7DC
:1026000007FC401B41F28831884201D9032061E672
:102610002D4868300068C0F340000028EFD1012F3A
:1026200007D129483830006820F0805026493831D9
:10263000086000BFA069002845D02348006800F06A
:102640000C0008285DD0A069022845D100201F4950
:102650000866FFF7DDFB054606E0FFF7D9FB401BE8
:10266000022801D9032035E6174808380068C0F36E
:1026700040600028F1D1D4E907010843616A40EACB
:1026800081110122A06AC2EB500041EA00412C20D6
:10269000005D41EA00600C49091F086001200B49F8
:1026A0000866FFF7B5FB054606E0FFF7B1FB401BE8
:1026B000022801D903200DE6034808380068C0F35A
:1026C00040600028F1D049E008380240000047424D
:1026D000800E474200700040002021490866FFF745
:1026E00097FB054606E0FFF793FB401B022801D944
:1026F0000320EFE51B480068C0F340600028F2D1DA
:102700002CE0A069012800D1E4E51648001D066808
:10271000A069012820D006F48001E06981421BD124
:1027200006F03F01206A814216D147F6C070304062
:10273000616AB0EB811F0FD106F440310122A06A1B
:10274000C2EB5000B1EB004F06D106F070612C20B7
:10275000005DB1EB006F01D00120BBE50020B9E5C1
:1027600000004742003802407047704710B50446E9
:102770000CB9012010BD94F83D0028B9002084F860
:102780003C00204600F025F8022084F83D00211D81
:10279000206800F083FA012084F8460000BF84F826
:1027A0003E0001213F2001554020015541200155A7
:1027B00000BF00BF012084F842004320015544209F
:1027C00001554520015500BF012084F83D0000203F
:1027D000D0E77047014691F83D00012801D0012063
:1027E0007047022081F83D000868C06840F0010091
:1027F0000B68D8601A4B086898421BD00868B0F183
:10280000804F17D0174B0868984213D0164B0868B2
:1028100098420FD0154B086898420BD0144B0868AB
:10282000984207D0134B0868984203D0124B0868AF
:1028300098420CD10868806800F00702062A0CD084
:102840000868006840F001000B68186005E008683F
:10285000006840F001000B6818600020C0E700002D
:10286000000001400004004000080040000C00404F
:10287000000401400040014000180040704710B5BE
:10288000044620680069C0F34000D8B12068C068E1
:10289000C0F34000B0B16FF0020021680861012070
:1028A00020772068806900F0030018B12046FFF708
:1028B000E5FF05E0204600F0ADF8204600F0ABF85B
:1028C0000020207720680069C0F38000D8B120681C
:1028D000C068C0F38000B0B16FF0040021680861E7
:1028E000022020772068806900F4407018B12046EB
:1028F000FFF7C4FF05E0204600F08CF8204600F00A
:102900008AF80020207720680069C0F3C000D8B1A1
:102910002068C068C0F3C000B0B16FF00800216843
:102920000861042020772068C06900F0030018B116
:102930002046FFF7A3FF05E0204600F06BF8204695
:1029400000F069F80020207720680069C0F30010CB
:10295000D8B12068C068C0F30010B0B16FF01000AB
:1029600021680861082020772068C06900F4407061
:1029700018B12046FFF782FF05E0204600F04AF834
:10298000204600F048F8002020772068006900F019
:10299000010058B12068C06800F0010030B16FF04C
:1029A000010021680861204600F036F820680069BF
:1029B000C0F3C01058B12068C068C0F3C01030B177
:1029C0006FF08000216808612046FFF7CDFE206887
:1029D0000069C0F3801058B12068C068C0F380104F
:1029E00030B16FF0400021680861204600F020F807
:1029F00020680069C0F3401058B12068C068C0F377
:102A0000401030B16FF02000216808612046FFF7C8
:102A1000ACFE10BD7047704710B5044603492068EE
:102A2000884201D1FFF7FAF910BD00000000014013
:102A3000704700BFFEE7000010B50E480E49086061
:102A40000620486000210C4881604FF04071C16051
:102A50004FF40031016109014161002101764176A5
:102A60008176C17601774177FEF768FE08B1FEF7FF
:102A700010FB10BD00640040B400002010B50E48EB
:102A80000E4908600620486000210C4881604FF024
:102A90004071C1604FF400310161090141610021C1
:102AA000017641768176C17601774177FEF746FE61
:102AB00008B1FEF7EEFA10BD00680040DC0000200F
:102AC00010B50E4A00210E4802F0F6FF0D490860CD
:102AD0000D4A00210D4802F0EFFF0D4908600D4A34
:102AE00000210D4802F0E8FF0C4908600C4A002163
:102AF0000C4802F0E1FF0C49086010BDCC7C0008D6
:102B0000992B000800000020F07C0008752D0008BB
:102B100004000020147D0008990900080800002026
:102B2000387D0008A32B00080C00002008B500BF6A
:102B3000002000901548006840F0800013490860AC
:102B40000846006800F08000009000BF00BF00BF92
:102B5000002000900846006840F002000860084627
:102B6000006800F00200009000BF00BF00BF00201E
:102B700000900846006840F00100086008460068C0
:102B800000F00100009000BF00BF08BD30380240D7
:102B900000BFFEE700BFFEE700BF012002F036FFE6
:102BA000FBE700BF012002F031FFFBE710B54FF05B
:102BB000E020006904F034FE012801D004F07EFA20
:102BC00010BD000000B593B0302107A8FDF7A4FBAD
:102BD000142102A8FDF7A0FB00BF002001902448AB
:102BE000006840F08050224908600846006800F004
:102BF0008050019000BF00BF00BF002001901D4821
:102C0000006840F480401B4908600846006800F4F2
:102C10008040019000BF00BF012007900004089091
:102C200002200D9041050E9104210F91A8211091D1
:102C3000022111910421129107A8FFF747FB08B167
:102C4000FEF727FA0F200290022003900020049044
:102C50004FF4A05005904FF480500690052102A833
:102C6000FFF7E2F908B1FEF714FA13B000BD000057
:102C700040380240007000400348006840F4700093
:102C8000014908607047000088ED00E010B5024877
:102C9000FFF7F5FD10BD00000401002010B502682B
:102CA000294B98420ED0B0F1804F0BD0274B984261
:102CB00008D0274B984205D0264B984202D0264B8D
:102CC000984203D122F070024B681A431E4B98427F
:102CD00020D0B0F1804F1DD01C4B98421AD01C4B15
:102CE000984217D01B4B984214D01B4B984211D0DE
:102CF0001A4B98420ED01A4B98420BD0194B98425F
:102D000008D0194B984205D0184B984202D0184B66
:102D1000984203D122F44072CB681A4322F0800318
:102D20004C6943EA040202608B68C3620B688362E9
:102D3000054B984202D0084B984201D10B690363BE
:102D40000123436110BD0000000001400004004069
:102D500000080040000C0040000401400040014019
:102D6000004401400048014000180040001C0040A1
:102D7000002000400EB54FF47A7002F047FE00BF0D
:102D800004F05EFD029000210D48D0F8500200B220
:102D9000CDE900010A48D0F8780103B20848D0F81C
:102DA000A00002B20221074803F032FD0648008865
:102DB000401C05490880022102A803F067FFDFE7F5
:102DC000204A0020B4000020A400002000BFFEE73D
:102DD00003B401984100009850EAC12018BF0420B4
:102DE0004A0D18BF40F0010040F2FF72B2EB515F94
:102DF00008BF40F00200012808BF052002B070475C
:102E000002480068C0F30220704700000CED00E0AB
:102E100010B5002804DB0A07130E054A135406E018
:102E20000A07140E034A00F00F031B1FD45410BDF1
:102E300000E400E018ED00E0EFF3058070470000CB
:102E400010B52F499FED2C1B2DED020B84B005987A
:102E500020F000408842D8BF9DED040B2DDD2949AC
:102E6000884209D1049840B94FF0010001F06CFB91
:102E700001F02AFB06B010BD05DB9DED040B01F04F
:102E80000FFB06B010BD68469DED040B00F008FF77
:102E900010F0030004BF9DED021B9DED000B0CD054
:102EA00001280ED09DED021B9DED000B022817D0CE
:102EB000012001F045FA06B010BD01F00DF906B091
:102EC00010BD9DED021B9DED000B012001F038FAB5
:102ED00051EC100B81F0004106B041EC100B10BD1D
:102EE00001F0FAF851EC100B81F0004106B041EC12
:102EF000100B10BD000000000000000000000000EA
:102F0000FB21E93F0000F07F2DE9F04D2DED040B92
:102F10002DED0E8B96B0DDE92550279CDDF890A0B5
:102F200025F0004624F00048BAF1000F14BF01213B
:102F3000002101EB4502FC4953184A1093422AD361
:102F4000002814BF0123002303EB44030B44F7497B
:102F50008B4220D358EA00019FEDF59B76D0DFF835
:102F6000D8B35D4503D1BAF1000F05D188E0BAF1BD
:102F7000000F08BF002100D0012101EB450111F530
:102F8000001F08D8002814BF0121002101EB4401D3
:102F900011F5001F0BD99DED261B9DED240B16B0DE
:102FA000BDEC0E8B04B0BDE8F04D01F083BA0027F4
:102FB000002DBCBFE149884521DAE1498845A8BF19
:102FC00002271CDAC3451ADCDE4901EB285114291B
:102FD00008DDC1F1340220FA02F101FA02F2824264
:102FE0000DD108E058B9C1F1140228FA02F101FA32
:102FF00002F2424503D101F00101C1F1020756EA94
:103000000A0124D1002C22DA002D18BF022F01D092
:10301000012F0AD0022001F097FA16B0BDEC0E8BFA
:1030200004B0BDE8F04D01F023BA022001F08CFAA3
:1030300001F01EFA51EC100B81F0004141EC100B35
:1030400016B0BDEC0E8B04B0BDE8F08D18E09FED1E
:10305000BEAB9FEDBF8B002871D1B848804522D10F
:1030600005F1804010F5801008BFBAF1000F07D0BD
:10307000B3450ADC002CA8BF9DED260BE0DA0DE07D
:10308000B0EE490AF0EE690ADAE7002C06DA9DEDA7
:10309000260B51EC100B81F000416FE0AE487844F4
:1030A00090ED000BCCE7D8454DD1002C48DA2EB17D
:1030B00086423AD1BAF1000F42D126E0BAF1000FB0
:1030C00013D0022001F040FA01F00EFA8DED020B50
:1030D0009DED240B8DED000B10EE900A039961F32A
:1030E0001E0003909DED020BAAE78DED02AB9DED56
:1030F000240B1AEE901A10EE900A8DED000B61F37E
:103100001E0003909DED020B9AE78DED028B9DED65
:10311000240B18EE901A10EE900A8DED000B61F35F
:103120001E0003909DED020B8AE709DA9DED240B4A
:1031300051EC190B53EC102BFDF712FA1EE020E0B6
:103140009DED240B7CE786421BDAB4F1804F0DD055
:10315000A4F10050B0F1FF5013D1002D11DB9DED13
:10316000240B51EC100B03F0A3FB07E09DED240BA7
:1031700053EC102B51EC100B00F0C2BC41EC100BC7
:103180005EE79DED240B51EC100B01F0E3F9BAF171
:10319000000FCDE90E0142D19FED710B46B3A6F1B0
:1031A000E040B0F17F600CD05E4538D1002D00DAF0
:1031B000A7B3022F0CBF01204FF0FF30FDF782FBB9
:1031C000DCE7002D01DD002C0DDA002D01DD002CE7
:1031D0001FDB002D16DA002C14DB012F08BF9FED3A
:1031E000620B3FF42DAFB0EE4A0AF0EE6A0A27E711
:1031F000022F18BF002D0CD0012F0AD1002DFFF691
:103200001FAF06E0002DB8BF002C08DA012F3FF4F5
:1032100017AFB0EE480AF0EE680A11E71BE0012094
:1032200000EBE57050EA070115D0791EB0EE498A2F
:10323000F0EE698A084308BF9FED4D8B4E4800258C
:10324000804570DD4D494E48884514DDB0420DDBA8
:10325000002C19DB2FE0012001F076F916B0BDEC4F
:103260000E8B04B0BDE8F04D01F02EB9B34502DC81
:10327000002C09DC1FE0864202DA002C1BDA03E096
:103280005E452BDD002C16DD022001F05DF901F01A
:103290002BF98DED020B53EC1A2B51EC180BFDF7AB
:1032A000EDF8CDE900010399019861F31E00039048
:1032B0009DED020BC4E6022001F046F901F024F96D
:1032C00010EE901A18EE900A8DED020B8DED008B2A
:1032D00061F31E0003909DED020BB1E69DED0E0B18
:1032E00053EC192B51EC100BFDF7C2F89FED260B98
:1032F000CDE9080153EC102B9DED080B51EC100BA0
:10330000FDF7BCF89FED221B53EC112BFDF7B3F832
:103310009DED081B53EC112BFDF7B0F89FED1E1B24
:1033200053EC112B3CE08CE0FFFF1F00FFFF0F0070
:10333000000000000000F03F0000F03F0000F07FC0
:103340000000404301FCFFFF000000000000F07F90
:103350000000000000000000A64D0000000000007A
:103360000000000000000080000000000000F0FFEE
:10337000000000000000F0BF0000E0410000F0434A
:10338000FFFFEF3F00000000000000000000D03F02
:10339000555555555555D53F000000000000E03FFC
:1033A000FDF769F89DED080B41EC1A0B53EC102B5F
:1033B00051EC100BFDF762F853EC1A2BFDF75EF899
:1033C00041EC1A0B9FEDFE0B53EC102B9DED080BFF
:1033D00051EC100BFDF752F841EC1B0B9FEDFA0B73
:1033E00051EC1A0B53EC102BFDF748F841EC1A0B7B
:1033F0009FEDF70B53EC102B9DED080B51EC100BD0
:10340000FDF73CF853EC1A2BFDF732F841EC1A0BA0
:1034100051EC1B0B53EC1A2BFCF789FF0690CDE9FE
:1034200006519DED060B53EC1B2B51EC100BFDF7D9
:103430001FF853EC1A2BFDF71EF841EC100B00F0AF
:10344000A1B90020B6F5801F0EDA9FEDE30B53EC17
:10345000102B9DED0E0B51EC100BFDF70FF8CDE985
:103460000E016FF034000E4600EB2650A0F2FF373D
:10347000C6F31300DA4940F07F6646F040568842B2
:10348000D8BF002408DDD7498142C8BF012403DC2E
:103490000024A6F580167F1CD348784400EBC400B6
:1034A0000F9690ED00CB9DED0E0B53EC1C2B51ECC9
:1034B000100BFCF7DDFF9DED0E0B41EC1B0B53ECED
:1034C0001C2B51EC100BFCF732FF41EC100B51ECB4
:1034D000190B53EC102BFDF743F841EC1D0B51EC8D
:1034E0001B0B53EC1D2BFCF7C9FF41EC1A0BBF481B
:1034F0008DED10AB7844109590ED000B4FF000501F
:1035000040EA660000EB84408DED080B00F50020DA
:1035100009909DED080B53EC1C2B51EC100BFCF7A4
:10352000A7FF9DED0E1B53EC112BFCF7A4FF41EC04
:10353000100B53EC102B9DED100B51EC100BFCF706
:103540009DFF9DED080B41EC1C0B53EC102B9DEDEA
:10355000100B51EC100BFCF791FF53EC1B2BFCF7FD
:103560008AFF53EC1C2BFCF783FF53EC1D2BFCF75D
:1035700085FF41EC1C0B53EC1A2B51EC1A0BFCF79A
:103580007DFF41EC1B0B9A480621B0EE4B0AF0EE92
:103590006B0A784400F058FEB0EE401AF0EE601A64
:1035A000B0EE41DAF0EE61DA53EC1B2B51EC1B0B61
:1035B000FCF764FF53EC1D2BFCF760FF9DED100B37
:1035C00041EC1B0B53EC1A2B51EC100BFCF7AFFE2C
:1035D00053EC1C2BFCF752FF53EC1B2BFCF7A7FE04
:1035E0009DED100B41EC1B0B53EC102B51EC100B11
:1035F000FCF744FF41EC1D0B9FED7FEB53EC1E2BC2
:10360000FCF795FE53EC1B2BFCF791FE0890CDE9DF
:1036100008519DED080B53EC1E2B51EC100BFCF7E1
:1036200027FF53EC1D2BFCF723FF53EC1B2BFCF760
:1036300022FF9DED080B41EC1D0B53EC102B9DED73
:10364000100B51EC100BFCF719FF41EC1B0B53EC6A
:103650001A2B51EC1D0BFCF711FF9DED080B41ECF3
:103660001A0B53EC102B51EC1C0BFCF707FF53EC1F
:103670001A2BFCF75CFE41EC1A0B51EC1B0B53ECC4
:103680001A2BFCF754FE0C90CDE90C519DED0C0B60
:1036900053EC1B2B51EC100BFCF7EAFE53EC1A2BEE
:1036A000FCF7E9FE41EC1B0B9FED550B53EC102B87
:1036B0009DED0C0B51EC100BFCF7E0FE41EC1A0BEE
:1036C0009FED510B51EC1B0B53EC102BFCF7D6FE6E
:1036D00041EC1B0B9FED4E0B53EC102B9DED0C0B97
:1036E00051EC100BFCF7CAFE53EC1B2BFCF71FFE32
:1036F00041EC100B4848784400EBC40090ED001BEF
:1037000051EC100B53EC112BFCF711FE41EC1B0B91
:103710003846FDF7D7F8CDE9080153EC1B2B51ECE7
:103720001A0BFCF704FE41EC100B3C48784400EB0C
:10373000C40090ED00CB51EC100B53EC1C2BFCF7AC
:10374000F6FD9DED081B53EC112BFCF7F0FD0690E8
:10375000CDE906519DED080B53EC102B9DED060BAA
:1037600051EC100BFCF784FE53EC1C2BFCF780FE95
:1037700053EC1A2BFCF77CFE53EC1B2BFCF77BFE67
:1037800041EC100B9DED261B53EC102B8DED001B17
:1037900000959DED260B51EC100BFCF76FFE9DED97
:1037A000000B41EC1A0B53EC102B9DED260B51EC4A
:1037B000100BFCF75DFE9DED061B53EC112B2FE06B
:1037C000000000604715F73FFE822B654715F73F65
:1037D00044DF5DF80BAE543E0000000000004043A3
:1037E0008E9803007AB60B00F248000050490000A2
:1037F0002A4800000000000000000000000008400F
:10380000000000E009C7EE3FFD033ADC09C7EE3FC8
:10381000F5015B14E02F3EBEB64600007046000086
:10382000FCF72CFE53EC1A2BFCF781FD9DED060BEB
:1038300041EC1A0B53EC102B9DED000B51EC100BCF
:10384000FCF71CFECDE90C019DED0C0B51EC1A0BA5
:1038500053EC102BFCF76BFDCDE902010C46AA4995
:103860008C422FDB611A084318D19DED0C0B53ECF1
:10387000102B9DED020B51EC100BFCF7F9FD41EC08
:103880001B0B9FEDA30B51EC1A0B53EC102BFCF709
:103890004EFD53EC1B2BFDF727F82DD2022000F034
:1038A00053FE00F021FE10EE901A18EE900A8DEDF6
:1038B000020B8DED008B61F31E0003909DED020B5A
:1038C000FFF7BEBB944A24F00041914214D39349C0
:1038D000214408437FF4EFAC9DED0C0B53EC102B0F
:1038E0009DED020B51EC100BFCF7C2FD53EC1A2BB3
:1038F000FCF7FAFF7FF6DFAC24F000408849894AE4
:10390000002601EB205182422BDA481C4FF4801133
:1039100021FA00F02044844AC0F30A517A44A1F20B
:10392000FF3192ED000B814A8DED080BCA4020EA71
:103930000202C0F3130040F48010C1F1140120FA18
:1039400001F60992002CB8BF76429DED080B53ECAE
:10395000102B9DED0C0B51EC100BFCF789FDCDE904
:103960000C019DED0C0B51EC1A0B53EC102BFCF7DA
:10397000DEFC9FED6F0B0890CDE9085153EC102B46
:103980009DED080B51EC100BFCF778FD41EC1B0B87
:103990009FED690B53EC102B9DED080B51EC100BB8
:1039A000FCF76CFD9DED0C0B41EC1C0B53EC102B4C
:1039B0009DED080B51EC100BFCF75AFD53EC1A2B44
:1039C000FCF759FD9FED5E1B53EC112BFCF756FDE8
:1039D00053EC1C2BFCF7ABFC41EC1A0B51EC1B0B12
:1039E00053EC1A2BFCF7A3FCCDE902019DED020B71
:1039F00053EC1B2B51EC100BFCF73AFD53EC1A2B3C
:103A0000FCF739FD9DED020B41EC1A0B53EC102B2A
:103A100051EC100BFCF732FDCDE908014A489DED51
:103A2000080B0521784400F00FFC9DED081B51ECBC
:103A3000100B53EC112BFCF721FD9DED021B53ECF9
:103A4000112BFCF718FDCDE906019DED020B53EC9F
:103A50001A2B51EC100BFCF711FD53EC1A2BFCF751
:103A600066FC9FED3B0B41EC1A0B53EC102B9DEDCC
:103A7000060B51EC100BFCF7FBFC9DED060B41EC2B
:103A80001B0B53EC102B9DED020B51EC100BFCF7B4
:103A9000F5FC53EC1B2BFCF763FD53EC1A2BFCF7E6
:103AA000E7FC9DED021B53EC112BFCF7E1FC53EC02
:103AB000192BFCF7E0FCCDE9020101EB06500115E2
:103AC0000029C8BF039015DC9DED020B324651EC76
:103AD000100BFCF78FFEFFF77BF9042808BF00F0FE
:103AE00013FD32469DED020B51EC100BFCF782FEEC
:103AF000CDE902019DED020B51EC180B53EC102B9C
:103B0000FCF7BCFCFFF73ABB00009040000000004F
:103B1000FE822B654715973C00CC904000346F3FE8
:103B200001FCFFFF0000E03F28450000FFFF0F0001
:103B300000000000432EE63F396CA80C615C20BEFB
:103B4000EF39FAFE422EE63FC843000000000000B5
:103B5000000000000000004010B52F499FED2C1B15
:103B60002DED020B84B0059820F000408842DCBFA8
:103B700000209DED040B32DD2849884209D10498CC
:103B800040B94FF0010000F0DFFC00F09DFC06B0F2
:103B900010BD05DB9DED040B00F082FC06B010BDEE
:103BA00068469DED040B00F07BF810F0030011D087
:103BB000012818D09DED021B9DED000B02281AD0A4
:103BC00000F08AFA51EC100B81F0004106B041EC94
:103BD000100B10BD9DED021B9DED000B012000F0B0
:103BE000AFFB06B010BD9DED021B9DED000B00F07C
:103BF00073FA06B010BD012000F0A2FB51EC100BCF
:103C000081F0004106B041EC100B10BD0000000037
:103C10000000000000000000FB21E93F0000F07FF1
:103C200000B52DED048BB0EE409AF0EE609A83B0B3
:103C300051EC190BFCF7F5FD41EC180B18EE100ACE
:103C400018EE901A8DED008B002818BF0120084354
:103C500020F00040C0F17F6000F1E040C00F14D0C0
:103C600019EE101A19EE900A8DED009B002918BF6D
:103C70000121084320F00040C0F17F6000F1E040E6
:103C8000C00F04BF012000F05FFCB0EE480A03B093
:103C9000F0EE680ABDEC048B00BD000000000000DF
:103CA0002DE9F14F04462DED020B2DED088B8AB066
:103CB0009FEDE70B80ED020B139EE74826F00045D1
:103CC00085420ADC9DED120B002084ED000B0AB04A
:103CD000BDEC088B03B0BDE8F08FE0489FEDE0AB92
:103CE0009FEDE1BBA84247DDE14F9FEDE39B9FEDD8
:103CF000E48B9DED120B53EC1A2B51EC100B002EA4
:103D00001CDDFCF7B5FB41EC100BBD4208D053ECB9
:103D10001B2B51EC100BFCF7ABFBC4E900010BE0D3
:103D200053EC192B51EC100BFCF7A2FB53EC182BA6
:103D3000FCF79EFBC4E900010120C8E7FCF7F7FA95
:103D400041EC100BBD4208D053EC1B2B51EC100B77
:103D5000FCF7EDFAC4E900010BE053EC192B51EC30
:103D6000100BFCF7E4FA53EC182BFCF7E0FAC4E96B
:103D700000014FF0FF30AAE7C348A84279DB9DED70
:103D8000120B51EC100B00F0E5FB41EC180B9FED12
:103D9000C00B53EC102BFCF771FB9FEDBF1B53ECDA
:103DA000112BFCF7C4FAFCF7D6FD0746FCF78AFD99
:103DB00041EC190B53EC1A2BFCF760FB53EC182B5E
:103DC000FCF759FB41EC180B53EC1B2B51EC190B76
:103DD000FCF754FBDFF8C8A241EC100B4FEA155872
:103DE0000125FA4453EC102B51EC180BFCF740FB67
:103DF000032DC4E900013DD0C1F30A5005EB451184
:103E0000A8EB00001139814234DA0AEB051BB0EE51
:103E100048AA9BED000BF0EE68AA53EC102B51EC76
:103E2000190BFCF72BFB41EC1B0B51EC1A0B53EC61
:103E30001B2BFCF71DFB41EC180B51EC1A0B53EC40
:103E4000182BFCF715FB53EC1B2BFCF711FB9BED20
:103E5000020B41EC1A0B53EC102B51EC190BFCF735
:103E60000DFB53EC1A2BFCF703FB41EC100B6D1C04
:103E7000B8E70EE0002EA8BF3846BFF628AF94ED95
:103E8000000B51EC100B81F00041C4E900017842B5
:103E90001DE7C6F3130040F4801EC6F30A50A0F2DB
:103EA000F530471100F01F05C5F12000DDF848B0DE
:103EB00008900020069007900520EC467949002DD7
:103EC00007EB0002794408BF51F8221009D051F8DD
:103ED000223001EB8201AB404A68089922FA01F1D5
:103EE0001943A1FB0E26A1FB0B131A449A4234BFBF
:103EF0000123002303EB06080CEB8003D3E901A6A2
:103F00000E448E4234BF0121002192448A4411B1F3
:103F1000924502D903E0924501D2012100E000213F
:103F2000C3E901A641444CF82010011EA0F1010094
:103F3000C4DC029800F10050850F0298DDE90367A8
:103F40008000DDF81480FCF7BDFC41EC1A0B304614
:103F5000FCF7F4FC9FED541B53EC112BFCF78EFA8D
:103F600041EC1B0B3846FCF7E9FC9FED511B53EC71
:103F7000112BFCF783FA41EC180B4046FCF7DEFCF2
:103F80009FED4D1B53EC112BFCF778FA41EC190B0C
:103F900051EC180B53EC192BFCF7C9F953EC1B2B04
:103FA000FCF7C5F953EC1A2BFCF7C1F9CDE9080170
:103FB000002008909DED080B53EC1A2B51EC100BD0
:103FC000FCF756FA53EC1B2BFCF752FA53EC182B68
:103FD000FCF74EFA53EC192BFCF74DFA9FED381B0A
:103FE00053EC112BFCF74AFA9FED370B41EC180B01
:103FF00053EC102B9DED080B51EC100BFCF73EFA27
:1040000053EC182BFCF793F99FED310B41EC180B97
:1040100053EC102B9DED080B51EC100BFCF72EFA16
:1040200053EC182BFCF783F941EC100B139810F0AC
:10403000004F06D06D4251EC100B81F0004141EC75
:10404000100B284684ED000B41E600000000000044
:104050000000000000000000FB21E93F7CD9024085
:1040600000004054FB21F93F3163621A61B4D03D36
:10407000FB21F93F000000000000601A61B4D03D50
:104080007370032E8A19A33BFB2139410000000005
:1040900083C8C96D305FE43F000000000000E03FCE
:1040A0006A400000B83F0000000000000000103E21
:1040B000000000000000103C000000000000103A6A
:1040C000182D4454FB21F93D3326A611460B113C13
:1040D00000000054FB21F93D10B52DED040B2DED32
:1040E000088B82B0B0EE419AF0EE619A0B9820F006
:1040F00000449FED4BABB4F1795F11DA9DED0A0BF3
:1041000051EC100BFCF727FC002801BFB0EE4A0A67
:10411000F0EE6A0A02B0BDEC088B04BF04B010BD1B
:104120009DED0A0B53EC102B51EC100BFCF7A6F98C
:1041300041EC180B3C480621B0EE480AF0EE680A44
:10414000784400F081F853EC182B51EC100BFCF77D
:1041500095F99DED0A0B41EC1B0B53EC192B51EC1F
:10416000100BFCF78BF941EC190B53EC1B2B51ECAA
:10417000180BFCF783F953EC192BFCF779F99FED39
:104180002C0B41EC190B53EC102B51EC180BFCF7DA
:1041900075F941EC100B2848844210DA53EC192BC6
:1041A00051EC100BFCF764F953EC1A2BFCF763F994
:1041B00041EC100B02B0BDEC088B04B010BD1F48E1
:1041C000A042BCBF9FED1E1B8DED001B06DBA4F5BE
:1041D00000100190002000909DED001B51EC100B91
:1041E00053EC112BFCF744F99DED000B41EC180B3F
:1041F00053EC102B51EC1A0BFCF73AF941EC1A0B6B
:1042000053EC192B51EC180BFCF732F953EC1A2B29
:10421000FCF731F941EC100BCCE700000000000086
:10422000000000000000F03FD43C0000000000004F
:10423000000000000000E03F3333D33F0000E93FBF
:10424000000000000000D23F70B504462DED028B47
:104250004D1E00EBC500B0EE408AF0EE608A90ED96
:10426000000B35F0060017D053EC182B51EC100B57
:10427000FCF704F941EC100B6D1E04EBC50090ED4A
:10428000001B51EC100B53EC112BFCF750F841ECD8
:10429000100B35F00600E7D1022D36D0042D1CD0CE
:1042A000062D1CBFBDEC028B70BD53EC182B51ECDE
:1042B000100BFCF7E3F894ED0A1B53EC112BFCF701
:1042C00036F853EC182BFCF7D9F894ED081B53EC97
:1042D000112BFCF72CF841EC100B53EC182B51EC84
:1042E000100BFCF7CBF894ED061B53EC112BFCF7ED
:1042F0001EF853EC182BFCF7C1F894ED040B53ECAB
:10430000102BFCF714F841EC100B53EC182B51EC6C
:10431000100BFCF7B3F894ED021B53EC112BFCF7D8
:1043200006F853EC182BFCF7A9F894ED001B53EC9E
:10433000112BFBF7FCFFBDEC028B41EC100B70BDA9
:1043400031B504462DED040B2DED0A8BB0EE41BACC
:10435000F0EE61BA0B989DED0A0B20F00040B0F131
:10436000795F0DDA51EC100BFEF732FD042808BF1F
:1043700000F0CAF89DED0A0BBDEC0A8B05B030BD0C
:1043800053EC102B51EC100BFCF778F841EC180BA8
:104390009DED0A0B53EC182B51EC100BFCF76EF84B
:1043A00041EC190B2C48B0EE480AF0EE680A0521E2
:1043B0007844FFF749FF9FED2ACBB0EE40AAF0EE1C
:1043C00060AA9CB353EC1C2B51EC190BFCF756F86C
:1043D00041EC1C0B53EC1A2B51EC190BFCF74EF86B
:1043E0009FED210B41EC190B53EC102B51EC1B0BE7
:1043F000FCF744F853EC192BFCF73AF853EC182B64
:10440000FCF73CF853EC1B2BFCF732F853EC1C2B5D
:10441000FCF72EF89DED0A1B53EC112BFCF72BF843
:10442000BDEC0A8B05B041EC100B30BDFFE753EC3F
:104430001A2B51EC180BFCF721F853EC1C2BFBF753
:1044400076FF53EC192BFCF719F89DED0A1B53EC82
:10445000112BFBF76CFFE3E7643B0000000000005A
:10446000495555555555C5BF000000000000E03FB7
:104470009FED070B10B553EC102B9FED070B51EC84
:10448000100BFCF76DF841EC100B10BD00000000A4
:104490000000000000000000000000000000F03FED
:1044A00010B553EC102B51EC100BFBF740FF41EC17
:1044B000100B10BD10B553EC112B51EC100BFBF78A
:1044C00036FF41EC100B10BD9FED050B10B553EC02
:1044D000102B51EC100BFCF743F841EC100B10BD06
:1044E00000000000000000009FED050B10B553EC2C
:1044F000102B51EC100BFBF7C1FF41EC100B10BD62
:1045000000000000000000709FED050B10B553EC9B
:10451000102B51EC100BFBF7B1FF41EC100B10BD51
:10452000000000000000001002E008C8121F08C1CF
:10453000002AFAD170477047002001E001C1121F24
:10454000002AFBD170470000014908607047000055
:10455000B000002082B0CDE9000121F000400190C0
:104560009DED000B02B051EC100B704710B5C26806
:104570000261036A426A8362C2624A780B7842EA45
:104580000322C260CA788B7842EA032212B2C28048
:10459000C28882804A790B7942EA032212B20281F0
:1045A0008A798272C2680369D21AB2F5805F03DD2C
:1045B0008269521E826108E0C2680369D21A12F54C
:1045C000805F02DA8269521C8261C268B0F91430DD
:1045D000D31A826903EB4232D31702624362C26884
:1045E000B0F91430D21A0264026CB2F5805F04DDB7
:1045F000026CA2F50052026407E0026C12F5805FC3
:1046000003DA026C02F500520264036A426A826AAB
:10461000C46A9A1A0263426D012A03D1036A426A8C
:104620008363C26310BD0000FDF704FCFEF7CAFA05
:10463000FEF77CFAFEF700FAFEF720FA0E4801F0CA
:10464000A7F90D480068406940F002000A4909686E
:1046500048610A4801F09CF908480068406940F048
:10466000020006490968486101F0E0F9FEF728FAFE
:1046700001F0F2F900BFFEE7B4000020DC000020EA
:10468000F0B52DED028BB7B005460C4617461E4619
:10469000012D7DD1601E00EBC00000EB4000FE4903
:1046A00031F83000ADF80000601E00EBC00000EBF8
:1046B000400001EBC0004088ADF80200601E00EB36
:1046C000C00000EB400001EBC0008088ADF80400A2
:1046D000601E00EBC00000EB400001EBC000C08892
:1046E000ADF80600601E00EBC00000EB400001EBDF
:1046F000C0000089ADF80800601E00EBC00000EBB0
:10470000400001EBC000807A8DF80A00601E00EBCB
:10471000C00000EB400001EBC000C0680390601EC9
:1047200000EBC00000EB400001EBC000006904900A
:10473000601E00EBC00000EB400001EBC000808A6F
:10474000ADF81400601E00EBC00000EB400001EB70
:10475000C00080690690601E00EBC00000EB4000C6
:1047600001EBC001086A496ACDE90801601E00EB4F
:10477000C00000EB4000C84901EBC000826AC16A7A
:10478000601E00EBC00000EB4000CDE90A2100E014
:10479000D2E1C14901EBC000006B0C90601E00EB40
:1047A000C00000EB400001EBC000406B0D90601EAC
:1047B00000EBC00000EB400001EBC000826BC16B5E
:1047C000601E00EBC00000EB4000CDE90E21B249B5
:1047D00001EBC000006C1090601E00EBC00000EB0D
:1047E000400001EBC00090F844008DF84400601ECA
:1047F00000EBC00000EB400001EBC000B0F8460049
:10480000ADF84600601E00EBC00000EB400001EB7D
:10481000C000B0F84810ADF84810601E00EBC000B2
:1048200000EB40009C4901EBC000B0F84A10ADF825
:104830004A10601E00EBC00000EB4000964901EBFF
:10484000C000B0F84C10ADF84C10601E00EBC0007A
:1048500000EB4000904901EBC000B0F84E10ADF8FD
:104860004E10601E00EBC00000EB40008A4901EBD7
:10487000C000B0F85000ADF85000601E00EBC00062
:1048800000EB400001EBC000406D1590601E00EB96
:10489000C00000EB400001EBC000806D1690601E70
:1048A00000EBC00000EB400001EBC00090ED170AE8
:1048B0008DED170A601E00EBC00000EB400001EB1D
:1048C000C00090ED180A8DED180A601E00EBC000C4
:1048D00000EB400001EBC00090ED190A8DED190AC4
:1048E000601E00EBC00000EB400001EBC00090ED4B
:1048F0001A0A8DED1A0A601E00EBC00000EB4000A2
:1049000001EBC00090ED1B0A8DED1B0A601E00EB51
:10491000C00000EB400001EBC00090ED1C0A8DEDE3
:104920001C0A601E00EBC00000EB400001EBC00061
:1049300090ED1D0A8DED1D0A601E00EBC00000EB1E
:10494000400001EBC000816F601E00EBC00000EB77
:1049500040001E91504901EBC00090ED1F0A8DED03
:104960001F0A601E00EBC00000EB400001EBC0001E
:1049700090ED200A8DED200A601E00EBC00000EBD8
:10498000400001EBC00090ED210A8DED210A601E70
:1049900000EBC00000EB400001EBC00090ED220AEC
:1049A0008DED220A601E00EBC00000EB400001EB21
:1049B000C00090ED230A8DED230A601E00EBC000BD
:1049C00000EB400001EBC00090ED240A8DED240ABD
:1049D000601E00EBC00000EB400001EBC00090ED5A
:1049E000250A8DED250A601E00EBC00000EB40009B
:1049F00001EBC00090ED260A8DED260A601E00EB4B
:104A0000C00000EB400001EBC00090ED270A8DEDE7
:104A1000270A601E00EBC00000EB400001EBC00065
:104A2000D0F8A010601E00EBC00000EB4000289101
:104A3000194901EBC00090ED290A8DED290A601E8D
:104A400000EBC00000EB400001EBC00090ED2A0A33
:104A50008DED2A0A601E00EBC00000EB400001EB68
:104A6000C00090ED2B0A8DED2B0A601E00EBC000FC
:104A700000EB400001EBC00090ED2C0A8DED2C0AFC
:104A8000601E00EBC00000EB400001EBC00090EDA9
:104A90002D0A8DED2D0A01E0204A0020601E00EB5A
:104AA000C00000EB400001EBC00090ED2E0A8DED40
:104AB0002E0A601E00EBC00000EB400001EBC000BE
:104AC00090ED2F0A8DED2F0A601E00EBC00000EB69
:104AD000400001EBC00090ED300A8DED300A601E01
:104AE00000EBC00000EB400001EBC00090ED310A8C
:104AF0008DED310A601E00EBC00000EB400001EBC1
:104B0000C000D0F8C810601E00EBC00000EB4000F1
:104B10003291FE4901EBC00090ED330A8DED330A6E
:104B2000601E00EBC00000EB400001EBC00090ED08
:104B3000340A8DED340A52E2022DFCD1601E00EBE6
:104B4000C00000EB4000F24931F83000ADF8000041
:104B5000601E00EBC00000EB400001EBC00040888D
:104B6000ADF80200601E00EBC00000EB400001EB5E
:104B7000C0008088ADF80400601E00EBC00000EBB0
:104B8000400001EBC000C088ADF80600601E00EBDD
:104B9000C00000EB400001EBC0000089ADF8080048
:104BA000601E00EBC00000EB400001EBC000807A0B
:104BB0008DF80A00601E00EBC00000EB400001EB26
:104BC000C000C0680390601E00EBC00000EB400016
:104BD00001EBC00000690490601E00EBC00000EB18
:104BE000400001EBC000808AADF81400601E00EBAD
:104BF000C00000EB400001EBC00080690690601E21
:104C000000EBC00000EB400001EBC001086A496AFC
:104C1000CDE90801601E00EBC00000EB4000BC497C
:104C200001EBC000826AC16A601E00EBC00000EBAD
:104C30004000CDE90A21B64901EBC000006B0C90A1
:104C4000601E00EBC00000EB400001EBC000406BB9
:104C50000D90601E00EBC00000EB400001EBC000B7
:104C6000826BC16B601E00EBC00000EB4000CDE921
:104C70000E21A74901EBC000006C1090601E00EBF4
:104C8000C00000EB400001EBC00090F844008DF83C
:104C90004400601E00EBC00000EB400001EBC000D0
:104CA000B0F84600ADF84600601E00EBC00000EB17
:104CB000400001EBC000B0F84810ADF84810601E8D
:104CC00000EBC00000EB4000914901EBC000B0F8E0
:104CD0004A10ADF84A10601E00EBC00000EB400027
:104CE0008B4901EBC000B0F84C10ADF84C10601EC1
:104CF00000EBC00000EB4000854901EBC000B0F8BC
:104D00004E10ADF84E10601E00EBC00000EB4000EE
:104D10007F4901EBC000B0F85000ADF85000601EB4
:104D200000EBC00000EB400001EBC000406D1590AF
:104D3000601E00EBC00000EB400001EBC000806D86
:104D40001690601E00EBC00000EB400001EBC000BD
:104D500090ED170A8DED170A601E00EBC00000EB06
:104D6000400001EBC00090ED180A8DED180A601E9E
:104D700000EBC00000EB400001EBC00090ED190A11
:104D80008DED190A601E00EBC00000EB400001EB46
:104D9000C00090ED1A0A8DED1A0A601E00EBC000EB
:104DA00000EB400001EBC00090ED1B0A8DED1B0AEB
:104DB000601E00EBC00000EB400001EBC00090ED76
:104DC0001C0A8DED1C0A601E00EBC00000EB4000C9
:104DD00001EBC00090ED1D0A8DED1D0A601E00EB79
:104DE000C00000EB400001EBC000816F601E00EBD3
:104DF000C00000EB40001E91454901EBC00090ED62
:104E00001F0A8DED1F0A601E00EBC00000EB400082
:104E100001EBC00090ED200A8DED200A601E00EB32
:104E2000C00000EB400001EBC00090ED210A8DEDC9
:104E3000210A601E00EBC00000EB400001EBC00047
:104E400090ED220A8DED220A601E00EBC00000EBFF
:104E5000400001EBC00090ED230A8DED230A601E97
:104E600000EBC00000EB400001EBC00090ED240A15
:104E70008DED240A601E00EBC00000EB400001EB4A
:104E8000C00090ED250A8DED250A601E00EBC000E4
:104E900000EB400001EBC00090ED260A8DED260AE4
:104EA000601E00EBC00000EB400001EBC00090ED85
:104EB000270A8DED270A601E00EBC00000EB4000C2
:104EC00001EBC000D0F8A010601E00EBC00000EBAA
:104ED000400028910E4901EBC00090ED290A8DEDAC
:104EE000290A601E00EBC00000EB400001EBC0008F
:104EF00090ED2A0A8DED2A0A601E00EBC00000EB3F
:104F0000400001EBC00090ED2B0A03E0204A002096
:104F1000685300208DED2B0A601E00EBC00000EBF3
:104F2000400001EBC00090ED2C0A8DED2C0A601EB4
:104F300000EBC00000EB400001EBC00090ED2D0A3B
:104F40008DED2D0A601E00EBC00000EB400001EB70
:104F5000C00090ED2E0A8DED2E0A601E00EBC00001
:104F600000EB400001EBC00090ED2F0A8DED2F0A01
:104F7000601E00EBC00000EB400001EBC00090EDB4
:104F8000300A8DED300A601E00EBC00000EB4000DF
:104F900001EBC00090ED310A8DED310A601E00EB8F
:104FA000C00000EB400001EBC000D0F8C810601E4C
:104FB00000EBC00000EB40003291FE4901EBC00065
:104FC00090ED330A8DED330A601E00EBC00000EB5C
:104FD000400001EBC00090ED340A8DED340A012F42
:104FE00020D1DDE908211046FBF729FB08EE100A65
:104FF00000EE106AF8EEC00AB0EE480A2BA800F0E6
:10500000B7FD9DED321AB8EEC11AF0EE410ABDF9B6
:10501000040001EE100AB8EEC11AB0EE410A21A850
:1050200000F0A6FD022F0ED1BDF9040000EE900A9B
:10503000F8EEE00AB0EE600A00EE906AF8EEE00AE0
:1050400021A800F095FD012D7ED1BDF80010601E55
:1050500000EBC00000EB4000D74A22F83010BDF84A
:105060000210601E00EBC00000EB400002EBC0002D
:105070004180BDF80410601E00EBC00000EB400052
:1050800002EBC0008180BDF80610601E00EBC0007E
:1050900000EB400002EBC000C180BDF80810601EAC
:1050A00000EBC00000EB400002EBC00001819DF866
:1050B0000A10601E00EBC00000EB400002EBC000D5
:1050C0008172601E00EBC00000EB400002EBC000EC
:1050D0000399C160601E00EBC00000EB400002EBD2
:1050E000C00004990161BDF81410601E00EBC000FF
:1050F00000EB400002EBC0008182601E00EBC000AC
:1051000000EB400002EBC00006998161621E02EBD9
:10511000C20202EB4202A84B03EBC202DDE9081017
:1051200011625062621E02EBC20202EB420203EB0A
:10513000C202DDE90A109162D062601E00EBC0007D
:1051400000EB40001A4600E0D0E102EBC0000C99F1
:105150000163601E00EBC00000EB400002EBC000EA
:105160000D994163621E02EBC20202EB420203EBA5
:10517000C202DDE90E109163D063601E00EBC00037
:1051800000EB40001A4602EBC000109901649DF844
:105190004410601E00EBC00000EB400002EBC000BA
:1051A00080F84410BDF84610601E00EBC00000EB14
:1051B000400002EBC000A0F84610BDF84810601E89
:1051C00000EBC00000EB400002EBC000A0F848106C
:1051D000BDF84A10601E00EBC00000EB400002EB7F
:1051E000C000A0F84A10BDF84C10601E00EBC000D3
:1051F00000EB400002EBC000A0F84C10BDF84E10D0
:10520000601E00EBC00000EB400002EBC000A0F805
:105210004E10BDF85010601E00EBC00000EB4000C7
:1052200002EBC000A0F85010601E00EBC00000EBC5
:10523000400002EBC00015994165601E00EBC00004
:1052400000EB400002EBC000169981659DED170A46
:10525000601E00EBC00000EB4000114601EBC000F7
:1052600080ED170A9DED180A601E00EBC00000EBF0
:10527000400001EBC00080ED180A9DED190A601E88
:1052800000EBC00000EB400001EBC00080ED190A0C
:105290009DED1A0A601E00EBC00000EB400001EB20
:1052A000C00080ED1A0A9DED1B0A601E00EBC000D5
:1052B00000EB400001EBC00080ED1B0A9DED1C0AD5
:1052C000601E00EBC00000EB400001EBC00080ED71
:1052D0001C0A9DED1D0A601E00EBC00000EB4000A3
:1052E00001EBC00080ED1D0A601E00EBC00000EB6A
:1052F000400002EBC0001E9981679DED1F0A601EF1
:1053000000EBC00000EB4000114601EBC00080ED57
:105310001F0A9DED200A601E00EBC00000EB40005C
:1053200001EBC00080ED200A9DED210A601E00EB1C
:10533000C00000EB400001EBC00080ED210A9DEDB4
:10534000220A601E00EBC00000EB400001EBC00031
:1053500080ED220A9DED230A601E00EBC00000EBE9
:10536000400001EBC00080ED230A9DED240A601E81
:1053700000EBC00000EB400001EBC00080ED240A10
:105380009DED250A601E00EBC00000EB400001EB24
:10539000C00080ED250A9DED260A601E00EBC000CE
:1053A00000EB400001EBC00080ED260A9DED270ACE
:1053B000601E03E068530020204A002000EBC0007C
:1053C00000EB400001EBC00080ED270A601E00EBFF
:1053D000C00000EB400002EBC0002899C0F8A0100C
:1053E0009DED290A601E00EBC00000EB4000114655
:1053F00001EBC00080ED290A9DED2A0A601E00EB3A
:10540000C00000EB400001EBC00080ED2A0A9DEDDA
:105410002B0A601E00EBC00000EB400001EBC00057
:1054200080ED2B0A9DED2C0A601E00EBC00000EB06
:10543000400001EBC00080ED2C0A9DED2D0A601E9E
:1054400000EBC00000EB400001EBC00080ED2D0A36
:105450009DED2E0A601E00EBC00000EB400001EB4A
:10546000C00080ED2E0A9DED2F0A601E00EBC000EB
:1054700000EB400001EBC00080ED2F0A9DED300AEB
:10548000601E00EBC00000EB400001EBC00080EDAF
:10549000300A9DED310A601E00EBC00000EB4000B9
:1054A00001EBC00080ED310A601E00EBC00000EB94
:1054B000400002EBC0003299C0F8C8109DED330ADD
:1054C000601E00EBC00000EB4000114601EBC00085
:1054D00080ED330A9DED340A601E00EBC00000EB46
:1054E000400001EBC00080ED340A4DE2022DFCD1FA
:1054F000BDF80010601E00EBC00000EB4000FE4A4B
:1055000022F83010BDF80210601E00EBC00000EB66
:10551000400002EBC0004180BDF80410601E00EBAB
:10552000C00000EB400002EBC0008180BDF8061017
:10553000601E00EBC00000EB400002EBC000C18029
:10554000BDF80810601E00EBC00000EB400002EB4D
:10555000C00001819DF80A10601E00EBC00000EB46
:10556000400002EBC0008172601E00EBC00000EB47
:10557000400002EBC0000399C160601E00EBC00058
:1055800000EB400002EBC00004990161BDF814106B
:10559000601E00EBC00000EB400002EBC000818207
:1055A000601E00EBC00000EB400002EBC00006995B
:1055B0008161621E02EBC20202EB4202CE4B03EBA0
:1055C000C202DDE9081011625062621E02EBC202E3
:1055D00002EB420203EBC202DDE90A109162D062E3
:1055E000601E00EBC00000EB40001A4602EBC0005A
:1055F0000C990163601E00EBC00000EB400002EB61
:10560000C0000D994163621E02EBC20202EB42022E
:1056100003EBC202DDE90E109163D063601E00EB64
:10562000C00000EB40001A4602EBC0001099016474
:105630009DF84410601E00EBC00000EB400002EB40
:10564000C00080F84410BDF84610601E00EBC0009A
:1056500000EB400002EBC000A0F84610BDF8481077
:10566000601E00EBC00000EB400002EBC000A0F8A1
:105670004810BDF84A10601E00EBC00000EB40006F
:1056800002EBC000A0F84A10BDF84C10601E00EB01
:10569000C00000EB400002EBC000A0F84C10BDF8C9
:1056A0004E10601E00EBC00000EB400002EBC0009B
:1056B000A0F84E10BDF85010601E00EBC00000EBCB
:1056C000400002EBC000A0F85010601E00EBC000CC
:1056D00000EB400002EBC00015994165601E00EB35
:1056E000C00000EB400002EBC000169981659DED03
:1056F000170A601E00EBC00000EB4000114601EBF2
:10570000C00080ED170A9DED180A601E00EBC00076
:1057100000EB400001EBC00080ED180A9DED190A76
:10572000601E00EBC00000EB400001EBC00080ED0C
:10573000190A9DED1A0A601E00EBC00000EB400044
:1057400001EBC00080ED1A0A9DED1B0A601E00EB04
:10575000C00000EB400001EBC00080ED1B0A9DED96
:105760001C0A601E00EBC00000EB400001EBC00013
:1057700080ED1C0A9DED1D0A601E00EBC00000EBD1
:10578000400001EBC00080ED1D0A601E00EBC00070
:1057900000EB400002EBC0001E9981679DED1F0ADF
:1057A000601E00EBC00000EB4000114601EBC000A2
:1057B00080ED1F0A9DED200A601E00EBC00000EB8B
:1057C000400001EBC00080ED200A9DED210A601E23
:1057D00000EBC00000EB400001EBC00080ED210AAF
:1057E0009DED220A601E00EBC00000EB400001EBC3
:1057F000C00080ED220A9DED230A601E00EBC00070
:1058000000EB400001EBC00080ED230A9DED240A6F
:10581000601E00EBC00000EB400001EBC00080ED1B
:10582000240A9DED250A601E00EBC00000EB40003D
:1058300001EBC00080ED250A9DED260A601E00EBFD
:10584000C00000EB400001EBC00080ED260A9DED9A
:10585000270A601E00EBC00000EB400001EBC00017
:1058600080ED270A601E00EBC00000EB400002EB59
:10587000C0002899C0F8A0109DED290A601E00EB19
:10588000C00000EB4000114601EBC00080ED290A8A
:105890009DED2A0A601E00EBC00000EB400001EB0A
:1058A000C00080ED2A0A9DED2B0A601E00EBC000AF
:1058B00000EB400001EBC00080ED2B0A9DED2C0AAF
:1058C000601E00EBC00000EB400001EBC00080ED6B
:1058D0002C0A9DED2D0A601E00EBC00000EB40007D
:1058E00001EBC00080ED2D0A9DED2E0A601E00EB3D
:1058F000C00000EB400001E06853002001EBC00055
:1059000080ED2E0A9DED2F0A601E00EBC00000EB1B
:10591000400001EBC00080ED2F0A9DED300A601EB3
:1059200000EBC00000EB400001EBC00080ED300A4E
:105930009DED310A601E00EBC00000EB400001EB62
:10594000C00080ED310A601E00EBC00000EB40009B
:1059500002EBC0003299C0F8C8109DED330A601EFA
:1059600000EBC00000EB4000114601EBC00080EDF1
:10597000330A9DED340A601E00EBC00000EB4000CE
:1059800001EBC00080ED340A37B0BDEC028BF0BDF6
:1059900010B58AB004461B48844202D1002005900D
:1059A00004E01948844201D10E20059000200690A1
:1059B0000120079000200090019002900390049035
:1059C0000E2009900120089069462046FBF724FC30
:1059D00008B1FBF75EFB2046FCF7E9F808B1FBF7DE
:1059E00058FB02212046FBF757FB08B1FBF751FBA0
:1059F00001212046FBF750FB08B1FBF74AFB0AB038
:105A000010BD0000B4000020DC00002070B5054689
:105A1000FDF712FA10B16FF0050404E0002415B18F
:105A2000284601F005F9204670BD000010B5FDF7CD
:105A300003FA10B16FF0050409E00648006820B9C8
:105A4000012004490860002401E04FF0FF342046A3
:105A500010BD00007400002070B5FDF7EDF910B125
:105A60006FF005041FE011480068012819D100BF3C
:105A7000801F0021002804DB0A07130E0C4A135470
:105A800006E00A07150E0B4A00F00F031B1FD55442
:105A900000BF00BF02200549086001F0AFF90024F3
:105AA00001E04FF0FF34204670BD0000740000207C
:105AB00000E400E018ED00E02DE9FF47804689464C
:105AC000144600200390FDF7B7F900284ED1B8F135
:105AD000000F4BD0802618258246471E44B320680D
